{
	"AddProduct.sol": {
		"AddProduct": {
			"abi": [
				{
					"anonymous": false,
					"inputs": [
						{
							"indexed": false,
							"internalType": "uint256",
							"name": "productId",
							"type": "uint256"
						},
						{
							"indexed": false,
							"internalType": "string",
							"name": "name",
							"type": "string"
						},
						{
							"indexed": true,
							"internalType": "address",
							"name": "seller",
							"type": "address"
						},
						{
							"indexed": false,
							"internalType": "uint256",
							"name": "price",
							"type": "uint256"
						}
					],
					"name": "ProductAdded",
					"type": "event"
				},
				{
					"inputs": [
						{
							"internalType": "uint256",
							"name": "_productId",
							"type": "uint256"
						},
						{
							"internalType": "string",
							"name": "_name",
							"type": "string"
						},
						{
							"internalType": "address",
							"name": "_seller",
							"type": "address"
						},
						{
							"internalType": "uint256",
							"name": "_price",
							"type": "uint256"
						}
					],
					"name": "addProduct",
					"outputs": [],
					"stateMutability": "nonpayable",
					"type": "function"
				},
				{
					"inputs": [],
					"name": "getAllProducts",
					"outputs": [
						{
							"components": [
								{
									"internalType": "uint256",
									"name": "productId",
									"type": "uint256"
								},
								{
									"internalType": "string",
									"name": "name",
									"type": "string"
								},
								{
									"internalType": "address",
									"name": "seller",
									"type": "address"
								},
								{
									"internalType": "uint256",
									"name": "price",
									"type": "uint256"
								}
							],
							"internalType": "struct AddProduct.Product[]",
							"name": "",
							"type": "tuple[]"
						}
					],
					"stateMutability": "view",
					"type": "function"
				},
				{
					"inputs": [
						{
							"internalType": "uint256",
							"name": "_productId",
							"type": "uint256"
						}
					],
					"name": "getProductById",
					"outputs": [
						{
							"components": [
								{
									"internalType": "uint256",
									"name": "productId",
									"type": "uint256"
								},
								{
									"internalType": "string",
									"name": "name",
									"type": "string"
								},
								{
									"internalType": "address",
									"name": "seller",
									"type": "address"
								},
								{
									"internalType": "uint256",
									"name": "price",
									"type": "uint256"
								}
							],
							"internalType": "struct AddProduct.Product",
							"name": "",
							"type": "tuple"
						}
					],
					"stateMutability": "view",
					"type": "function"
				}
			],
			"devdoc": {
				"kind": "dev",
				"methods": {},
				"version": 1
			},
			"evm": {
				"assembly": "    /* \"AddProduct.sol\":57:1235  contract AddProduct ... */\n  mstore(0x40, 0x80)\n  callvalue\n  dup1\n  iszero\n  tag_1\n  jumpi\n  0x00\n  dup1\n  revert\ntag_1:\n  pop\n  dataSize(sub_0)\n  dup1\n  dataOffset(sub_0)\n  0x00\n  codecopy\n  0x00\n  return\nstop\n\nsub_0: assembly {\n        /* \"AddProduct.sol\":57:1235  contract AddProduct ... */\n      mstore(0x40, 0x80)\n      callvalue\n      dup1\n      iszero\n      tag_1\n      jumpi\n      0x00\n      dup1\n      revert\n    tag_1:\n      pop\n      jumpi(tag_2, lt(calldatasize, 0x04))\n      shr(0xe0, calldataload(0x00))\n      dup1\n      0x02ee3a52\n      eq\n      tag_3\n      jumpi\n      dup1\n      0x31a41444\n      eq\n      tag_4\n      jumpi\n      dup1\n      0x3f70c2b4\n      eq\n      tag_5\n      jumpi\n    tag_2:\n      0x00\n      dup1\n      revert\n        /* \"AddProduct.sol\":971:1232  function getAllProducts() public view returns (Product[] memory) ... */\n    tag_3:\n      tag_6\n      tag_7\n      jump\t// in\n    tag_6:\n      mload(0x40)\n      tag_8\n      swap2\n      swap1\n      tag_9\n      jump\t// in\n    tag_8:\n      mload(0x40)\n      dup1\n      swap2\n      sub\n      swap1\n      return\n        /* \"AddProduct.sol\":400:826  function addProduct(uint256 _productId, string memory _name, address _seller, uint256 _price) external ... */\n    tag_4:\n      tag_10\n      0x04\n      dup1\n      calldatasize\n      sub\n      dup2\n      add\n      swap1\n      tag_11\n      swap2\n      swap1\n      tag_12\n      jump\t// in\n    tag_11:\n      tag_13\n      jump\t// in\n    tag_10:\n      stop\n        /* \"AddProduct.sol\":832:965  function getProductById(uint256 _productId) public view returns (Product memory) ... */\n    tag_5:\n      tag_14\n      0x04\n      dup1\n      calldatasize\n      sub\n      dup2\n      add\n      swap1\n      tag_15\n      swap2\n      swap1\n      tag_16\n      jump\t// in\n    tag_15:\n      tag_17\n      jump\t// in\n    tag_14:\n      mload(0x40)\n      tag_18\n      swap2\n      swap1\n      tag_19\n      jump\t// in\n    tag_18:\n      mload(0x40)\n      dup1\n      swap2\n      sub\n      swap1\n      return\n        /* \"AddProduct.sol\":971:1232  function getAllProducts() public view returns (Product[] memory) ... */\n    tag_7:\n        /* \"AddProduct.sol\":1018:1034  Product[] memory */\n      0x60\n        /* \"AddProduct.sol\":1053:1081  Product[] memory allProducts */\n      0x00\n        /* \"AddProduct.sol\":1096:1108  productCount */\n      sload(0x01)\n        /* \"AddProduct.sol\":1082:1109  new Product[](productCount) */\n      0xffffffffffffffff\n      dup2\n      gt\n      iszero\n      tag_21\n      jumpi\n      tag_22\n      tag_23\n      jump\t// in\n    tag_22:\n    tag_21:\n      mload(0x40)\n      swap1\n      dup1\n      dup3\n      mstore\n      dup1\n      0x20\n      mul\n      0x20\n      add\n      dup3\n      add\n      0x40\n      mstore\n      dup1\n      iszero\n      tag_24\n      jumpi\n      dup2\n      0x20\n      add\n    tag_25:\n      tag_26\n      tag_27\n      jump\t// in\n    tag_26:\n      dup2\n      mstore\n      0x20\n      add\n      swap1\n      0x01\n      swap1\n      sub\n      swap1\n      dup2\n      tag_25\n      jumpi\n      swap1\n      pop\n    tag_24:\n      pop\n        /* \"AddProduct.sol\":1053:1109  Product[] memory allProducts=new Product[](productCount) */\n      swap1\n      pop\n        /* \"AddProduct.sol\":1124:1133  uint256 i */\n      0x00\n        /* \"AddProduct.sol\":1120:1195  for(uint256 i=0;i<productCount;i++)... */\n    tag_28:\n        /* \"AddProduct.sol\":1138:1150  productCount */\n      sload(0x01)\n        /* \"AddProduct.sol\":1136:1137  i */\n      dup2\n        /* \"AddProduct.sol\":1136:1150  i<productCount */\n      lt\n        /* \"AddProduct.sol\":1120:1195  for(uint256 i=0;i<productCount;i++)... */\n      iszero\n      tag_29\n      jumpi\n        /* \"AddProduct.sol\":1184:1192  products */\n      0x00\n        /* \"AddProduct.sol\":1184:1195  products[i] */\n      dup1\n        /* \"AddProduct.sol\":1193:1194  i */\n      dup3\n        /* \"AddProduct.sol\":1184:1195  products[i] */\n      dup2\n      mstore\n      0x20\n      add\n      swap1\n      dup2\n      mstore\n      0x20\n      add\n      0x00\n      keccak256\n        /* \"AddProduct.sol\":1169:1195  allProducts[i]=products[i] */\n      mload(0x40)\n      dup1\n      0x80\n      add\n      0x40\n      mstore\n      swap1\n      dup2\n      0x00\n      dup3\n      add\n      sload\n      dup2\n      mstore\n      0x20\n      add\n      0x01\n      dup3\n      add\n      dup1\n      sload\n      tag_31\n      swap1\n      tag_32\n      jump\t// in\n    tag_31:\n      dup1\n      0x1f\n      add\n      0x20\n      dup1\n      swap2\n      div\n      mul\n      0x20\n      add\n      mload(0x40)\n      swap1\n      dup2\n      add\n      0x40\n      mstore\n      dup1\n      swap3\n      swap2\n      swap1\n      dup2\n      dup2\n      mstore\n      0x20\n      add\n      dup3\n      dup1\n      sload\n      tag_33\n      swap1\n      tag_32\n      jump\t// in\n    tag_33:\n      dup1\n      iszero\n      tag_34\n      jumpi\n      dup1\n      0x1f\n      lt\n      tag_35\n      jumpi\n      0x0100\n      dup1\n      dup4\n      sload\n      div\n      mul\n      dup4\n      mstore\n      swap2\n      0x20\n      add\n      swap2\n      jump(tag_34)\n    tag_35:\n      dup3\n      add\n      swap2\n      swap1\n      0x00\n      mstore\n      keccak256(0x00, 0x20)\n      swap1\n    tag_36:\n      dup2\n      sload\n      dup2\n      mstore\n      swap1\n      0x01\n      add\n      swap1\n      0x20\n      add\n      dup1\n      dup4\n      gt\n      tag_36\n      jumpi\n      dup3\n      swap1\n      sub\n      0x1f\n      and\n      dup3\n      add\n      swap2\n    tag_34:\n      pop\n      pop\n      pop\n      pop\n      pop\n      dup2\n      mstore\n      0x20\n      add\n      0x02\n      dup3\n      add\n      0x00\n      swap1\n      sload\n      swap1\n      0x0100\n      exp\n      swap1\n      div\n      0xffffffffffffffffffffffffffffffffffffffff\n      and\n      0xffffffffffffffffffffffffffffffffffffffff\n      and\n      0xffffffffffffffffffffffffffffffffffffffff\n      and\n      dup2\n      mstore\n      0x20\n      add\n      0x03\n      dup3\n      add\n      sload\n      dup2\n      mstore\n      pop\n      pop\n        /* \"AddProduct.sol\":1169:1180  allProducts */\n      dup3\n        /* \"AddProduct.sol\":1181:1182  i */\n      dup3\n        /* \"AddProduct.sol\":1169:1183  allProducts[i] */\n      dup2\n      mload\n      dup2\n      lt\n      tag_37\n      jumpi\n      tag_38\n      tag_39\n      jump\t// in\n    tag_38:\n    tag_37:\n      0x20\n      mul\n      0x20\n      add\n      add\n        /* \"AddProduct.sol\":1169:1195  allProducts[i]=products[i] */\n      dup2\n      swap1\n      mstore\n      pop\n        /* \"AddProduct.sol\":1151:1154  i++ */\n      dup1\n      dup1\n      tag_40\n      swap1\n      tag_41\n      jump\t// in\n    tag_40:\n      swap2\n      pop\n      pop\n        /* \"AddProduct.sol\":1120:1195  for(uint256 i=0;i<productCount;i++)... */\n      jump(tag_28)\n    tag_29:\n      pop\n        /* \"AddProduct.sol\":1213:1224  allProducts */\n      dup1\n        /* \"AddProduct.sol\":1206:1224  return allProducts */\n      swap2\n      pop\n      pop\n        /* \"AddProduct.sol\":971:1232  function getAllProducts() public view returns (Product[] memory) ... */\n      swap1\n      jump\t// out\n        /* \"AddProduct.sol\":400:826  function addProduct(uint256 _productId, string memory _name, address _seller, uint256 _price) external ... */\n    tag_13:\n        /* \"AddProduct.sol\":565:566  0 */\n      0x00\n        /* \"AddProduct.sol\":528:567  products[_productId].seller==address(0) */\n      0xffffffffffffffffffffffffffffffffffffffff\n      and\n        /* \"AddProduct.sol\":528:536  products */\n      0x00\n        /* \"AddProduct.sol\":528:548  products[_productId] */\n      dup1\n        /* \"AddProduct.sol\":537:547  _productId */\n      dup7\n        /* \"AddProduct.sol\":528:548  products[_productId] */\n      dup2\n      mstore\n      0x20\n      add\n      swap1\n      dup2\n      mstore\n      0x20\n      add\n      0x00\n      keccak256\n        /* \"AddProduct.sol\":528:555  products[_productId].seller */\n      0x02\n      add\n      0x00\n      swap1\n      sload\n      swap1\n      0x0100\n      exp\n      swap1\n      div\n      0xffffffffffffffffffffffffffffffffffffffff\n      and\n        /* \"AddProduct.sol\":528:567  products[_productId].seller==address(0) */\n      0xffffffffffffffffffffffffffffffffffffffff\n      and\n      eq\n        /* \"AddProduct.sol\":520:607  require(products[_productId].seller==address(0), \"Product with same ID already exists\") */\n      tag_43\n      jumpi\n      mload(0x40)\n      0x08c379a000000000000000000000000000000000000000000000000000000000\n      dup2\n      mstore\n      0x04\n      add\n      tag_44\n      swap1\n      tag_45\n      jump\t// in\n    tag_44:\n      mload(0x40)\n      dup1\n      swap2\n      sub\n      swap1\n      revert\n    tag_43:\n        /* \"AddProduct.sol\":618:643  Product memory newProduct */\n      0x00\n        /* \"AddProduct.sol\":644:687  Product(_productId, _name, _seller, _price) */\n      mload(0x40)\n      dup1\n      0x80\n      add\n      0x40\n      mstore\n      dup1\n        /* \"AddProduct.sol\":652:662  _productId */\n      dup7\n        /* \"AddProduct.sol\":644:687  Product(_productId, _name, _seller, _price) */\n      dup2\n      mstore\n      0x20\n      add\n        /* \"AddProduct.sol\":664:669  _name */\n      dup6\n        /* \"AddProduct.sol\":644:687  Product(_productId, _name, _seller, _price) */\n      dup2\n      mstore\n      0x20\n      add\n        /* \"AddProduct.sol\":671:678  _seller */\n      dup5\n        /* \"AddProduct.sol\":644:687  Product(_productId, _name, _seller, _price) */\n      0xffffffffffffffffffffffffffffffffffffffff\n      and\n      dup2\n      mstore\n      0x20\n      add\n        /* \"AddProduct.sol\":680:686  _price */\n      dup4\n        /* \"AddProduct.sol\":644:687  Product(_productId, _name, _seller, _price) */\n      dup2\n      mstore\n      pop\n        /* \"AddProduct.sol\":618:687  Product memory newProduct=Product(_productId, _name, _seller, _price) */\n      swap1\n      pop\n        /* \"AddProduct.sol\":719:729  newProduct */\n      dup1\n        /* \"AddProduct.sol\":698:706  products */\n      0x00\n        /* \"AddProduct.sol\":698:718  products[_productId] */\n      dup1\n        /* \"AddProduct.sol\":707:717  _productId */\n      dup8\n        /* \"AddProduct.sol\":698:718  products[_productId] */\n      dup2\n      mstore\n      0x20\n      add\n      swap1\n      dup2\n      mstore\n      0x20\n      add\n      0x00\n      keccak256\n        /* \"AddProduct.sol\":698:729  products[_productId]=newProduct */\n      0x00\n      dup3\n      add\n      mload\n      dup2\n      0x00\n      add\n      sstore\n      0x20\n      dup3\n      add\n      mload\n      dup2\n      0x01\n      add\n      swap1\n      dup2\n      tag_46\n      swap2\n      swap1\n      tag_47\n      jump\t// in\n    tag_46:\n      pop\n      0x40\n      dup3\n      add\n      mload\n      dup2\n      0x02\n      add\n      exp(0x0100, 0x00)\n      dup2\n      sload\n      dup2\n      0xffffffffffffffffffffffffffffffffffffffff\n      mul\n      not\n      and\n      swap1\n      dup4\n      0xffffffffffffffffffffffffffffffffffffffff\n      and\n      mul\n      or\n      swap1\n      sstore\n      pop\n      0x60\n      dup3\n      add\n      mload\n      dup2\n      0x03\n      add\n      sstore\n      swap1\n      pop\n      pop\n        /* \"AddProduct.sol\":740:752  productCount */\n      0x01\n      0x00\n        /* \"AddProduct.sol\":740:754  productCount++ */\n      dup2\n      sload\n      dup1\n      swap3\n      swap2\n      swap1\n      tag_48\n      swap1\n      tag_41\n      jump\t// in\n    tag_48:\n      swap2\n      swap1\n      pop\n      sstore\n      pop\n        /* \"AddProduct.sol\":802:809  _seller */\n      dup3\n        /* \"AddProduct.sol\":770:818  ProductAdded(_productId, _name, _seller, _price) */\n      0xffffffffffffffffffffffffffffffffffffffff\n      and\n      0x27053d27a5eb2a68ec20c3e8b30cbfbbe7bb019458aaac90ba4606956f97c8d6\n        /* \"AddProduct.sol\":783:793  _productId */\n      dup7\n        /* \"AddProduct.sol\":795:800  _name */\n      dup7\n        /* \"AddProduct.sol\":811:817  _price */\n      dup6\n        /* \"AddProduct.sol\":770:818  ProductAdded(_productId, _name, _seller, _price) */\n      mload(0x40)\n      tag_49\n      swap4\n      swap3\n      swap2\n      swap1\n      tag_50\n      jump\t// in\n    tag_49:\n      mload(0x40)\n      dup1\n      swap2\n      sub\n      swap1\n      log2\n        /* \"AddProduct.sol\":509:826  {... */\n      pop\n        /* \"AddProduct.sol\":400:826  function addProduct(uint256 _productId, string memory _name, address _seller, uint256 _price) external ... */\n      pop\n      pop\n      pop\n      pop\n      jump\t// out\n        /* \"AddProduct.sol\":832:965  function getProductById(uint256 _productId) public view returns (Product memory) ... */\n    tag_17:\n        /* \"AddProduct.sol\":897:911  Product memory */\n      tag_51\n      tag_27\n      jump\t// in\n    tag_51:\n        /* \"AddProduct.sol\":937:945  products */\n      0x00\n        /* \"AddProduct.sol\":937:957  products[_productId] */\n      dup1\n        /* \"AddProduct.sol\":946:956  _productId */\n      dup4\n        /* \"AddProduct.sol\":937:957  products[_productId] */\n      dup2\n      mstore\n      0x20\n      add\n      swap1\n      dup2\n      mstore\n      0x20\n      add\n      0x00\n      keccak256\n        /* \"AddProduct.sol\":930:957  return products[_productId] */\n      mload(0x40)\n      dup1\n      0x80\n      add\n      0x40\n      mstore\n      swap1\n      dup2\n      0x00\n      dup3\n      add\n      sload\n      dup2\n      mstore\n      0x20\n      add\n      0x01\n      dup3\n      add\n      dup1\n      sload\n      tag_53\n      swap1\n      tag_32\n      jump\t// in\n    tag_53:\n      dup1\n      0x1f\n      add\n      0x20\n      dup1\n      swap2\n      div\n      mul\n      0x20\n      add\n      mload(0x40)\n      swap1\n      dup2\n      add\n      0x40\n      mstore\n      dup1\n      swap3\n      swap2\n      swap1\n      dup2\n      dup2\n      mstore\n      0x20\n      add\n      dup3\n      dup1\n      sload\n      tag_54\n      swap1\n      tag_32\n      jump\t// in\n    tag_54:\n      dup1\n      iszero\n      tag_55\n      jumpi\n      dup1\n      0x1f\n      lt\n      tag_56\n      jumpi\n      0x0100\n      dup1\n      dup4\n      sload\n      div\n      mul\n      dup4\n      mstore\n      swap2\n      0x20\n      add\n      swap2\n      jump(tag_55)\n    tag_56:\n      dup3\n      add\n      swap2\n      swap1\n      0x00\n      mstore\n      keccak256(0x00, 0x20)\n      swap1\n    tag_57:\n      dup2\n      sload\n      dup2\n      mstore\n      swap1\n      0x01\n      add\n      swap1\n      0x20\n      add\n      dup1\n      dup4\n      gt\n      tag_57\n      jumpi\n      dup3\n      swap1\n      sub\n      0x1f\n      and\n      dup3\n      add\n      swap2\n    tag_55:\n      pop\n      pop\n      pop\n      pop\n      pop\n      dup2\n      mstore\n      0x20\n      add\n      0x02\n      dup3\n      add\n      0x00\n      swap1\n      sload\n      swap1\n      0x0100\n      exp\n      swap1\n      div\n      0xffffffffffffffffffffffffffffffffffffffff\n      and\n      0xffffffffffffffffffffffffffffffffffffffff\n      and\n      0xffffffffffffffffffffffffffffffffffffffff\n      and\n      dup2\n      mstore\n      0x20\n      add\n      0x03\n      dup3\n      add\n      sload\n      dup2\n      mstore\n      pop\n      pop\n      swap1\n      pop\n        /* \"AddProduct.sol\":832:965  function getProductById(uint256 _productId) public view returns (Product memory) ... */\n      swap2\n      swap1\n      pop\n      jump\t// out\n    tag_27:\n      mload(0x40)\n      dup1\n      0x80\n      add\n      0x40\n      mstore\n      dup1\n      0x00\n      dup2\n      mstore\n      0x20\n      add\n      0x60\n      dup2\n      mstore\n      0x20\n      add\n      and(0xffffffffffffffffffffffffffffffffffffffff, 0x00)\n      dup2\n      mstore\n      0x20\n      add\n      0x00\n      dup2\n      mstore\n      pop\n      swap1\n      jump\t// out\n        /* \"#utility.yul\":7:144   */\n    tag_58:\n        /* \"#utility.yul\":97:103   */\n      0x00\n        /* \"#utility.yul\":131:136   */\n      dup2\n        /* \"#utility.yul\":125:137   */\n      mload\n        /* \"#utility.yul\":115:137   */\n      swap1\n      pop\n        /* \"#utility.yul\":7:144   */\n      swap2\n      swap1\n      pop\n      jump\t// out\n        /* \"#utility.yul\":150:357   */\n    tag_59:\n        /* \"#utility.yul\":272:283   */\n      0x00\n        /* \"#utility.yul\":306:312   */\n      dup3\n        /* \"#utility.yul\":301:304   */\n      dup3\n        /* \"#utility.yul\":294:313   */\n      mstore\n        /* \"#utility.yul\":346:350   */\n      0x20\n        /* \"#utility.yul\":341:344   */\n      dup3\n        /* \"#utility.yul\":337:351   */\n      add\n        /* \"#utility.yul\":322:351   */\n      swap1\n      pop\n        /* \"#utility.yul\":150:357   */\n      swap3\n      swap2\n      pop\n      pop\n      jump\t// out\n        /* \"#utility.yul\":363:518   */\n    tag_60:\n        /* \"#utility.yul\":453:457   */\n      0x00\n        /* \"#utility.yul\":476:479   */\n      dup2\n        /* \"#utility.yul\":468:479   */\n      swap1\n      pop\n        /* \"#utility.yul\":506:510   */\n      0x20\n        /* \"#utility.yul\":501:504   */\n      dup3\n        /* \"#utility.yul\":497:511   */\n      add\n        /* \"#utility.yul\":489:511   */\n      swap1\n      pop\n        /* \"#utility.yul\":363:518   */\n      swap2\n      swap1\n      pop\n      jump\t// out\n        /* \"#utility.yul\":524:601   */\n    tag_61:\n        /* \"#utility.yul\":561:568   */\n      0x00\n        /* \"#utility.yul\":590:595   */\n      dup2\n        /* \"#utility.yul\":579:595   */\n      swap1\n      pop\n        /* \"#utility.yul\":524:601   */\n      swap2\n      swap1\n      pop\n      jump\t// out\n        /* \"#utility.yul\":607:715   */\n    tag_62:\n        /* \"#utility.yul\":684:708   */\n      tag_119\n        /* \"#utility.yul\":702:707   */\n      dup2\n        /* \"#utility.yul\":684:708   */\n      tag_61\n      jump\t// in\n    tag_119:\n        /* \"#utility.yul\":679:682   */\n      dup3\n        /* \"#utility.yul\":672:709   */\n      mstore\n        /* \"#utility.yul\":607:715   */\n      pop\n      pop\n      jump\t// out\n        /* \"#utility.yul\":721:820   */\n    tag_63:\n        /* \"#utility.yul\":773:779   */\n      0x00\n        /* \"#utility.yul\":807:812   */\n      dup2\n        /* \"#utility.yul\":801:813   */\n      mload\n        /* \"#utility.yul\":791:813   */\n      swap1\n      pop\n        /* \"#utility.yul\":721:820   */\n      swap2\n      swap1\n      pop\n      jump\t// out\n        /* \"#utility.yul\":826:985   */\n    tag_64:\n        /* \"#utility.yul\":900:911   */\n      0x00\n        /* \"#utility.yul\":934:940   */\n      dup3\n        /* \"#utility.yul\":929:932   */\n      dup3\n        /* \"#utility.yul\":922:941   */\n      mstore\n        /* \"#utility.yul\":974:978   */\n      0x20\n        /* \"#utility.yul\":969:972   */\n      dup3\n        /* \"#utility.yul\":965:979   */\n      add\n        /* \"#utility.yul\":950:979   */\n      swap1\n      pop\n        /* \"#utility.yul\":826:985   */\n      swap3\n      swap2\n      pop\n      pop\n      jump\t// out\n        /* \"#utility.yul\":991:1237   */\n    tag_65:\n        /* \"#utility.yul\":1072:1073   */\n      0x00\n        /* \"#utility.yul\":1082:1195   */\n    tag_123:\n        /* \"#utility.yul\":1096:1102   */\n      dup4\n        /* \"#utility.yul\":1093:1094   */\n      dup2\n        /* \"#utility.yul\":1090:1103   */\n      lt\n        /* \"#utility.yul\":1082:1195   */\n      iszero\n      tag_125\n      jumpi\n        /* \"#utility.yul\":1181:1182   */\n      dup1\n        /* \"#utility.yul\":1176:1179   */\n      dup3\n        /* \"#utility.yul\":1172:1183   */\n      add\n        /* \"#utility.yul\":1166:1184   */\n      mload\n        /* \"#utility.yul\":1162:1163   */\n      dup2\n        /* \"#utility.yul\":1157:1160   */\n      dup5\n        /* \"#utility.yul\":1153:1164   */\n      add\n        /* \"#utility.yul\":1146:1185   */\n      mstore\n        /* \"#utility.yul\":1118:1120   */\n      0x20\n        /* \"#utility.yul\":1115:1116   */\n      dup2\n        /* \"#utility.yul\":1111:1121   */\n      add\n        /* \"#utility.yul\":1106:1121   */\n      swap1\n      pop\n        /* \"#utility.yul\":1082:1195   */\n      jump(tag_123)\n    tag_125:\n        /* \"#utility.yul\":1229:1230   */\n      0x00\n        /* \"#utility.yul\":1220:1226   */\n      dup5\n        /* \"#utility.yul\":1215:1218   */\n      dup5\n        /* \"#utility.yul\":1211:1227   */\n      add\n        /* \"#utility.yul\":1204:1231   */\n      mstore\n        /* \"#utility.yul\":1053:1237   */\n      pop\n        /* \"#utility.yul\":991:1237   */\n      pop\n      pop\n      pop\n      jump\t// out\n        /* \"#utility.yul\":1243:1345   */\n    tag_66:\n        /* \"#utility.yul\":1284:1290   */\n      0x00\n        /* \"#utility.yul\":1335:1337   */\n      0x1f\n        /* \"#utility.yul\":1331:1338   */\n      not\n        /* \"#utility.yul\":1326:1328   */\n      0x1f\n        /* \"#utility.yul\":1319:1324   */\n      dup4\n        /* \"#utility.yul\":1315:1329   */\n      add\n        /* \"#utility.yul\":1311:1339   */\n      and\n        /* \"#utility.yul\":1301:1339   */\n      swap1\n      pop\n        /* \"#utility.yul\":1243:1345   */\n      swap2\n      swap1\n      pop\n      jump\t// out\n        /* \"#utility.yul\":1351:1708   */\n    tag_67:\n        /* \"#utility.yul\":1429:1432   */\n      0x00\n        /* \"#utility.yul\":1457:1496   */\n      tag_128\n        /* \"#utility.yul\":1490:1495   */\n      dup3\n        /* \"#utility.yul\":1457:1496   */\n      tag_63\n      jump\t// in\n    tag_128:\n        /* \"#utility.yul\":1512:1573   */\n      tag_129\n        /* \"#utility.yul\":1566:1572   */\n      dup2\n        /* \"#utility.yul\":1561:1564   */\n      dup6\n        /* \"#utility.yul\":1512:1573   */\n      tag_64\n      jump\t// in\n    tag_129:\n        /* \"#utility.yul\":1505:1573   */\n      swap4\n      pop\n        /* \"#utility.yul\":1582:1647   */\n      tag_130\n        /* \"#utility.yul\":1640:1646   */\n      dup2\n        /* \"#utility.yul\":1635:1638   */\n      dup6\n        /* \"#utility.yul\":1628:1632   */\n      0x20\n        /* \"#utility.yul\":1621:1626   */\n      dup7\n        /* \"#utility.yul\":1617:1633   */\n      add\n        /* \"#utility.yul\":1582:1647   */\n      tag_65\n      jump\t// in\n    tag_130:\n        /* \"#utility.yul\":1672:1701   */\n      tag_131\n        /* \"#utility.yul\":1694:1700   */\n      dup2\n        /* \"#utility.yul\":1672:1701   */\n      tag_66\n      jump\t// in\n    tag_131:\n        /* \"#utility.yul\":1667:1670   */\n      dup5\n        /* \"#utility.yul\":1663:1702   */\n      add\n        /* \"#utility.yul\":1656:1702   */\n      swap2\n      pop\n        /* \"#utility.yul\":1433:1708   */\n      pop\n        /* \"#utility.yul\":1351:1708   */\n      swap3\n      swap2\n      pop\n      pop\n      jump\t// out\n        /* \"#utility.yul\":1714:1840   */\n    tag_68:\n        /* \"#utility.yul\":1751:1758   */\n      0x00\n        /* \"#utility.yul\":1791:1833   */\n      0xffffffffffffffffffffffffffffffffffffffff\n        /* \"#utility.yul\":1784:1789   */\n      dup3\n        /* \"#utility.yul\":1780:1834   */\n      and\n        /* \"#utility.yul\":1769:1834   */\n      swap1\n      pop\n        /* \"#utility.yul\":1714:1840   */\n      swap2\n      swap1\n      pop\n      jump\t// out\n        /* \"#utility.yul\":1846:1942   */\n    tag_69:\n        /* \"#utility.yul\":1883:1890   */\n      0x00\n        /* \"#utility.yul\":1912:1936   */\n      tag_134\n        /* \"#utility.yul\":1930:1935   */\n      dup3\n        /* \"#utility.yul\":1912:1936   */\n      tag_68\n      jump\t// in\n    tag_134:\n        /* \"#utility.yul\":1901:1936   */\n      swap1\n      pop\n        /* \"#utility.yul\":1846:1942   */\n      swap2\n      swap1\n      pop\n      jump\t// out\n        /* \"#utility.yul\":1948:2056   */\n    tag_70:\n        /* \"#utility.yul\":2025:2049   */\n      tag_136\n        /* \"#utility.yul\":2043:2048   */\n      dup2\n        /* \"#utility.yul\":2025:2049   */\n      tag_69\n      jump\t// in\n    tag_136:\n        /* \"#utility.yul\":2020:2023   */\n      dup3\n        /* \"#utility.yul\":2013:2050   */\n      mstore\n        /* \"#utility.yul\":1948:2056   */\n      pop\n      pop\n      jump\t// out\n        /* \"#utility.yul\":2124:3072   */\n    tag_71:\n        /* \"#utility.yul\":2229:2232   */\n      0x00\n        /* \"#utility.yul\":2265:2269   */\n      0x80\n        /* \"#utility.yul\":2260:2263   */\n      dup4\n        /* \"#utility.yul\":2256:2270   */\n      add\n        /* \"#utility.yul\":2357:2361   */\n      0x00\n        /* \"#utility.yul\":2350:2355   */\n      dup4\n        /* \"#utility.yul\":2346:2362   */\n      add\n        /* \"#utility.yul\":2340:2363   */\n      mload\n        /* \"#utility.yul\":2376:2439   */\n      tag_138\n        /* \"#utility.yul\":2433:2437   */\n      0x00\n        /* \"#utility.yul\":2428:2431   */\n      dup7\n        /* \"#utility.yul\":2424:2438   */\n      add\n        /* \"#utility.yul\":2410:2422   */\n      dup3\n        /* \"#utility.yul\":2376:2439   */\n      tag_62\n      jump\t// in\n    tag_138:\n        /* \"#utility.yul\":2280:2449   */\n      pop\n        /* \"#utility.yul\":2531:2535   */\n      0x20\n        /* \"#utility.yul\":2524:2529   */\n      dup4\n        /* \"#utility.yul\":2520:2536   */\n      add\n        /* \"#utility.yul\":2514:2537   */\n      mload\n        /* \"#utility.yul\":2584:2587   */\n      dup5\n        /* \"#utility.yul\":2578:2582   */\n      dup3\n        /* \"#utility.yul\":2574:2588   */\n      sub\n        /* \"#utility.yul\":2567:2571   */\n      0x20\n        /* \"#utility.yul\":2562:2565   */\n      dup7\n        /* \"#utility.yul\":2558:2572   */\n      add\n        /* \"#utility.yul\":2551:2589   */\n      mstore\n        /* \"#utility.yul\":2610:2683   */\n      tag_139\n        /* \"#utility.yul\":2678:2682   */\n      dup3\n        /* \"#utility.yul\":2664:2676   */\n      dup3\n        /* \"#utility.yul\":2610:2683   */\n      tag_67\n      jump\t// in\n    tag_139:\n        /* \"#utility.yul\":2602:2683   */\n      swap2\n      pop\n        /* \"#utility.yul\":2459:2694   */\n      pop\n        /* \"#utility.yul\":2778:2782   */\n      0x40\n        /* \"#utility.yul\":2771:2776   */\n      dup4\n        /* \"#utility.yul\":2767:2783   */\n      add\n        /* \"#utility.yul\":2761:2784   */\n      mload\n        /* \"#utility.yul\":2797:2860   */\n      tag_140\n        /* \"#utility.yul\":2854:2858   */\n      0x40\n        /* \"#utility.yul\":2849:2852   */\n      dup7\n        /* \"#utility.yul\":2845:2859   */\n      add\n        /* \"#utility.yul\":2831:2843   */\n      dup3\n        /* \"#utility.yul\":2797:2860   */\n      tag_70\n      jump\t// in\n    tag_140:\n        /* \"#utility.yul\":2704:2870   */\n      pop\n        /* \"#utility.yul\":2953:2957   */\n      0x60\n        /* \"#utility.yul\":2946:2951   */\n      dup4\n        /* \"#utility.yul\":2942:2958   */\n      add\n        /* \"#utility.yul\":2936:2959   */\n      mload\n        /* \"#utility.yul\":2972:3035   */\n      tag_141\n        /* \"#utility.yul\":3029:3033   */\n      0x60\n        /* \"#utility.yul\":3024:3027   */\n      dup7\n        /* \"#utility.yul\":3020:3034   */\n      add\n        /* \"#utility.yul\":3006:3018   */\n      dup3\n        /* \"#utility.yul\":2972:3035   */\n      tag_62\n      jump\t// in\n    tag_141:\n        /* \"#utility.yul\":2880:3045   */\n      pop\n        /* \"#utility.yul\":3062:3066   */\n      dup1\n        /* \"#utility.yul\":3055:3066   */\n      swap2\n      pop\n        /* \"#utility.yul\":2234:3072   */\n      pop\n        /* \"#utility.yul\":2124:3072   */\n      swap3\n      swap2\n      pop\n      pop\n      jump\t// out\n        /* \"#utility.yul\":3078:3326   */\n    tag_72:\n        /* \"#utility.yul\":3193:3203   */\n      0x00\n        /* \"#utility.yul\":3228:3320   */\n      tag_143\n        /* \"#utility.yul\":3316:3319   */\n      dup4\n        /* \"#utility.yul\":3308:3314   */\n      dup4\n        /* \"#utility.yul\":3228:3320   */\n      tag_71\n      jump\t// in\n    tag_143:\n        /* \"#utility.yul\":3214:3320   */\n      swap1\n      pop\n        /* \"#utility.yul\":3078:3326   */\n      swap3\n      swap2\n      pop\n      pop\n      jump\t// out\n        /* \"#utility.yul\":3332:3468   */\n    tag_73:\n        /* \"#utility.yul\":3425:3429   */\n      0x00\n        /* \"#utility.yul\":3457:3461   */\n      0x20\n        /* \"#utility.yul\":3452:3455   */\n      dup3\n        /* \"#utility.yul\":3448:3462   */\n      add\n        /* \"#utility.yul\":3440:3462   */\n      swap1\n      pop\n        /* \"#utility.yul\":3332:3468   */\n      swap2\n      swap1\n      pop\n      jump\t// out\n        /* \"#utility.yul\":3540:4635   */\n    tag_74:\n        /* \"#utility.yul\":3705:3708   */\n      0x00\n        /* \"#utility.yul\":3734:3811   */\n      tag_146\n        /* \"#utility.yul\":3805:3810   */\n      dup3\n        /* \"#utility.yul\":3734:3811   */\n      tag_58\n      jump\t// in\n    tag_146:\n        /* \"#utility.yul\":3827:3936   */\n      tag_147\n        /* \"#utility.yul\":3929:3935   */\n      dup2\n        /* \"#utility.yul\":3924:3927   */\n      dup6\n        /* \"#utility.yul\":3827:3936   */\n      tag_59\n      jump\t// in\n    tag_147:\n        /* \"#utility.yul\":3820:3936   */\n      swap4\n      pop\n        /* \"#utility.yul\":3962:3965   */\n      dup4\n        /* \"#utility.yul\":4007:4011   */\n      0x20\n        /* \"#utility.yul\":3999:4005   */\n      dup3\n        /* \"#utility.yul\":3995:4012   */\n      mul\n        /* \"#utility.yul\":3990:3993   */\n      dup6\n        /* \"#utility.yul\":3986:4013   */\n      add\n        /* \"#utility.yul\":4037:4116   */\n      tag_148\n        /* \"#utility.yul\":4110:4115   */\n      dup6\n        /* \"#utility.yul\":4037:4116   */\n      tag_60\n      jump\t// in\n    tag_148:\n        /* \"#utility.yul\":4139:4146   */\n      dup1\n        /* \"#utility.yul\":4170:4171   */\n      0x00\n        /* \"#utility.yul\":4155:4590   */\n    tag_149:\n        /* \"#utility.yul\":4180:4186   */\n      dup6\n        /* \"#utility.yul\":4177:4178   */\n      dup2\n        /* \"#utility.yul\":4174:4187   */\n      lt\n        /* \"#utility.yul\":4155:4590   */\n      iszero\n      tag_151\n      jumpi\n        /* \"#utility.yul\":4251:4260   */\n      dup5\n        /* \"#utility.yul\":4245:4249   */\n      dup5\n        /* \"#utility.yul\":4241:4261   */\n      sub\n        /* \"#utility.yul\":4236:4239   */\n      dup10\n        /* \"#utility.yul\":4229:4262   */\n      mstore\n        /* \"#utility.yul\":4302:4308   */\n      dup2\n        /* \"#utility.yul\":4296:4309   */\n      mload\n        /* \"#utility.yul\":4330:4440   */\n      tag_152\n        /* \"#utility.yul\":4435:4439   */\n      dup6\n        /* \"#utility.yul\":4420:4433   */\n      dup3\n        /* \"#utility.yul\":4330:4440   */\n      tag_72\n      jump\t// in\n    tag_152:\n        /* \"#utility.yul\":4322:4440   */\n      swap5\n      pop\n        /* \"#utility.yul\":4463:4546   */\n      tag_153\n        /* \"#utility.yul\":4539:4545   */\n      dup4\n        /* \"#utility.yul\":4463:4546   */\n      tag_73\n      jump\t// in\n    tag_153:\n        /* \"#utility.yul\":4453:4546   */\n      swap3\n      pop\n        /* \"#utility.yul\":4575:4579   */\n      0x20\n        /* \"#utility.yul\":4570:4573   */\n      dup11\n        /* \"#utility.yul\":4566:4580   */\n      add\n        /* \"#utility.yul\":4559:4580   */\n      swap10\n      pop\n        /* \"#utility.yul\":4215:4590   */\n      pop\n        /* \"#utility.yul\":4202:4203   */\n      0x01\n        /* \"#utility.yul\":4199:4200   */\n      dup2\n        /* \"#utility.yul\":4195:4204   */\n      add\n        /* \"#utility.yul\":4190:4204   */\n      swap1\n      pop\n        /* \"#utility.yul\":4155:4590   */\n      jump(tag_149)\n    tag_151:\n        /* \"#utility.yul\":4159:4173   */\n      pop\n        /* \"#utility.yul\":4606:4610   */\n      dup3\n        /* \"#utility.yul\":4599:4610   */\n      swap8\n      pop\n        /* \"#utility.yul\":4626:4629   */\n      dup8\n        /* \"#utility.yul\":4619:4629   */\n      swap6\n      pop\n        /* \"#utility.yul\":3710:4635   */\n      pop\n      pop\n      pop\n      pop\n      pop\n        /* \"#utility.yul\":3540:4635   */\n      swap3\n      swap2\n      pop\n      pop\n      jump\t// out\n        /* \"#utility.yul\":4641:5106   */\n    tag_9:\n        /* \"#utility.yul\":4830:4834   */\n      0x00\n        /* \"#utility.yul\":4868:4870   */\n      0x20\n        /* \"#utility.yul\":4857:4866   */\n      dup3\n        /* \"#utility.yul\":4853:4871   */\n      add\n        /* \"#utility.yul\":4845:4871   */\n      swap1\n      pop\n        /* \"#utility.yul\":4917:4926   */\n      dup2\n        /* \"#utility.yul\":4911:4915   */\n      dup2\n        /* \"#utility.yul\":4907:4927   */\n      sub\n        /* \"#utility.yul\":4903:4904   */\n      0x00\n        /* \"#utility.yul\":4892:4901   */\n      dup4\n        /* \"#utility.yul\":4888:4905   */\n      add\n        /* \"#utility.yul\":4881:4928   */\n      mstore\n        /* \"#utility.yul\":4945:5099   */\n      tag_155\n        /* \"#utility.yul\":5094:5098   */\n      dup2\n        /* \"#utility.yul\":5085:5091   */\n      dup5\n        /* \"#utility.yul\":4945:5099   */\n      tag_74\n      jump\t// in\n    tag_155:\n        /* \"#utility.yul\":4937:5099   */\n      swap1\n      pop\n        /* \"#utility.yul\":4641:5106   */\n      swap3\n      swap2\n      pop\n      pop\n      jump\t// out\n        /* \"#utility.yul\":5112:5187   */\n    tag_75:\n        /* \"#utility.yul\":5145:5151   */\n      0x00\n        /* \"#utility.yul\":5178:5180   */\n      0x40\n        /* \"#utility.yul\":5172:5181   */\n      mload\n        /* \"#utility.yul\":5162:5181   */\n      swap1\n      pop\n        /* \"#utility.yul\":5112:5187   */\n      swap1\n      jump\t// out\n        /* \"#utility.yul\":5193:5310   */\n    tag_76:\n        /* \"#utility.yul\":5302:5303   */\n      0x00\n        /* \"#utility.yul\":5299:5300   */\n      dup1\n        /* \"#utility.yul\":5292:5304   */\n      revert\n        /* \"#utility.yul\":5316:5433   */\n    tag_77:\n        /* \"#utility.yul\":5425:5426   */\n      0x00\n        /* \"#utility.yul\":5422:5423   */\n      dup1\n        /* \"#utility.yul\":5415:5427   */\n      revert\n        /* \"#utility.yul\":5439:5561   */\n    tag_78:\n        /* \"#utility.yul\":5512:5536   */\n      tag_160\n        /* \"#utility.yul\":5530:5535   */\n      dup2\n        /* \"#utility.yul\":5512:5536   */\n      tag_61\n      jump\t// in\n    tag_160:\n        /* \"#utility.yul\":5505:5510   */\n      dup2\n        /* \"#utility.yul\":5502:5537   */\n      eq\n        /* \"#utility.yul\":5492:5555   */\n      tag_161\n      jumpi\n        /* \"#utility.yul\":5551:5552   */\n      0x00\n        /* \"#utility.yul\":5548:5549   */\n      dup1\n        /* \"#utility.yul\":5541:5553   */\n      revert\n        /* \"#utility.yul\":5492:5555   */\n    tag_161:\n        /* \"#utility.yul\":5439:5561   */\n      pop\n      jump\t// out\n        /* \"#utility.yul\":5567:5706   */\n    tag_79:\n        /* \"#utility.yul\":5613:5618   */\n      0x00\n        /* \"#utility.yul\":5651:5657   */\n      dup2\n        /* \"#utility.yul\":5638:5658   */\n      calldataload\n        /* \"#utility.yul\":5629:5658   */\n      swap1\n      pop\n        /* \"#utility.yul\":5667:5700   */\n      tag_163\n        /* \"#utility.yul\":5694:5699   */\n      dup2\n        /* \"#utility.yul\":5667:5700   */\n      tag_78\n      jump\t// in\n    tag_163:\n        /* \"#utility.yul\":5567:5706   */\n      swap3\n      swap2\n      pop\n      pop\n      jump\t// out\n        /* \"#utility.yul\":5712:5829   */\n    tag_80:\n        /* \"#utility.yul\":5821:5822   */\n      0x00\n        /* \"#utility.yul\":5818:5819   */\n      dup1\n        /* \"#utility.yul\":5811:5823   */\n      revert\n        /* \"#utility.yul\":5835:5952   */\n    tag_81:\n        /* \"#utility.yul\":5944:5945   */\n      0x00\n        /* \"#utility.yul\":5941:5942   */\n      dup1\n        /* \"#utility.yul\":5934:5946   */\n      revert\n        /* \"#utility.yul\":5958:6138   */\n    tag_23:\n        /* \"#utility.yul\":6006:6083   */\n      0x4e487b7100000000000000000000000000000000000000000000000000000000\n        /* \"#utility.yul\":6003:6004   */\n      0x00\n        /* \"#utility.yul\":5996:6084   */\n      mstore\n        /* \"#utility.yul\":6103:6107   */\n      0x41\n        /* \"#utility.yul\":6100:6101   */\n      0x04\n        /* \"#utility.yul\":6093:6108   */\n      mstore\n        /* \"#utility.yul\":6127:6131   */\n      0x24\n        /* \"#utility.yul\":6124:6125   */\n      0x00\n        /* \"#utility.yul\":6117:6132   */\n      revert\n        /* \"#utility.yul\":6144:6425   */\n    tag_82:\n        /* \"#utility.yul\":6227:6254   */\n      tag_168\n        /* \"#utility.yul\":6249:6253   */\n      dup3\n        /* \"#utility.yul\":6227:6254   */\n      tag_66\n      jump\t// in\n    tag_168:\n        /* \"#utility.yul\":6219:6225   */\n      dup2\n        /* \"#utility.yul\":6215:6255   */\n      add\n        /* \"#utility.yul\":6357:6363   */\n      dup2\n        /* \"#utility.yul\":6345:6355   */\n      dup2\n        /* \"#utility.yul\":6342:6364   */\n      lt\n        /* \"#utility.yul\":6321:6339   */\n      0xffffffffffffffff\n        /* \"#utility.yul\":6309:6319   */\n      dup3\n        /* \"#utility.yul\":6306:6340   */\n      gt\n        /* \"#utility.yul\":6303:6365   */\n      or\n        /* \"#utility.yul\":6300:6388   */\n      iszero\n      tag_169\n      jumpi\n        /* \"#utility.yul\":6368:6386   */\n      tag_170\n      tag_23\n      jump\t// in\n    tag_170:\n        /* \"#utility.yul\":6300:6388   */\n    tag_169:\n        /* \"#utility.yul\":6408:6418   */\n      dup1\n        /* \"#utility.yul\":6404:6406   */\n      0x40\n        /* \"#utility.yul\":6397:6419   */\n      mstore\n        /* \"#utility.yul\":6187:6425   */\n      pop\n        /* \"#utility.yul\":6144:6425   */\n      pop\n      pop\n      jump\t// out\n        /* \"#utility.yul\":6431:6560   */\n    tag_83:\n        /* \"#utility.yul\":6465:6471   */\n      0x00\n        /* \"#utility.yul\":6492:6512   */\n      tag_172\n      tag_75\n      jump\t// in\n    tag_172:\n        /* \"#utility.yul\":6482:6512   */\n      swap1\n      pop\n        /* \"#utility.yul\":6521:6554   */\n      tag_173\n        /* \"#utility.yul\":6549:6553   */\n      dup3\n        /* \"#utility.yul\":6541:6547   */\n      dup3\n        /* \"#utility.yul\":6521:6554   */\n      tag_82\n      jump\t// in\n    tag_173:\n        /* \"#utility.yul\":6431:6560   */\n      swap2\n      swap1\n      pop\n      jump\t// out\n        /* \"#utility.yul\":6566:6874   */\n    tag_84:\n        /* \"#utility.yul\":6628:6632   */\n      0x00\n        /* \"#utility.yul\":6718:6736   */\n      0xffffffffffffffff\n        /* \"#utility.yul\":6710:6716   */\n      dup3\n        /* \"#utility.yul\":6707:6737   */\n      gt\n        /* \"#utility.yul\":6704:6760   */\n      iszero\n      tag_175\n      jumpi\n        /* \"#utility.yul\":6740:6758   */\n      tag_176\n      tag_23\n      jump\t// in\n    tag_176:\n        /* \"#utility.yul\":6704:6760   */\n    tag_175:\n        /* \"#utility.yul\":6778:6807   */\n      tag_177\n        /* \"#utility.yul\":6800:6806   */\n      dup3\n        /* \"#utility.yul\":6778:6807   */\n      tag_66\n      jump\t// in\n    tag_177:\n        /* \"#utility.yul\":6770:6807   */\n      swap1\n      pop\n        /* \"#utility.yul\":6862:6866   */\n      0x20\n        /* \"#utility.yul\":6856:6860   */\n      dup2\n        /* \"#utility.yul\":6852:6867   */\n      add\n        /* \"#utility.yul\":6844:6867   */\n      swap1\n      pop\n        /* \"#utility.yul\":6566:6874   */\n      swap2\n      swap1\n      pop\n      jump\t// out\n        /* \"#utility.yul\":6880:7026   */\n    tag_85:\n        /* \"#utility.yul\":6977:6983   */\n      dup3\n        /* \"#utility.yul\":6972:6975   */\n      dup2\n        /* \"#utility.yul\":6967:6970   */\n      dup4\n        /* \"#utility.yul\":6954:6984   */\n      calldatacopy\n        /* \"#utility.yul\":7018:7019   */\n      0x00\n        /* \"#utility.yul\":7009:7015   */\n      dup4\n        /* \"#utility.yul\":7004:7007   */\n      dup4\n        /* \"#utility.yul\":7000:7016   */\n      add\n        /* \"#utility.yul\":6993:7020   */\n      mstore\n        /* \"#utility.yul\":6880:7026   */\n      pop\n      pop\n      pop\n      jump\t// out\n        /* \"#utility.yul\":7032:7457   */\n    tag_86:\n        /* \"#utility.yul\":7110:7115   */\n      0x00\n        /* \"#utility.yul\":7135:7201   */\n      tag_180\n        /* \"#utility.yul\":7151:7200   */\n      tag_181\n        /* \"#utility.yul\":7193:7199   */\n      dup5\n        /* \"#utility.yul\":7151:7200   */\n      tag_84\n      jump\t// in\n    tag_181:\n        /* \"#utility.yul\":7135:7201   */\n      tag_83\n      jump\t// in\n    tag_180:\n        /* \"#utility.yul\":7126:7201   */\n      swap1\n      pop\n        /* \"#utility.yul\":7224:7230   */\n      dup3\n        /* \"#utility.yul\":7217:7222   */\n      dup2\n        /* \"#utility.yul\":7210:7231   */\n      mstore\n        /* \"#utility.yul\":7262:7266   */\n      0x20\n        /* \"#utility.yul\":7255:7260   */\n      dup2\n        /* \"#utility.yul\":7251:7267   */\n      add\n        /* \"#utility.yul\":7300:7303   */\n      dup5\n        /* \"#utility.yul\":7291:7297   */\n      dup5\n        /* \"#utility.yul\":7286:7289   */\n      dup5\n        /* \"#utility.yul\":7282:7298   */\n      add\n        /* \"#utility.yul\":7279:7304   */\n      gt\n        /* \"#utility.yul\":7276:7388   */\n      iszero\n      tag_182\n      jumpi\n        /* \"#utility.yul\":7307:7386   */\n      tag_183\n      tag_81\n      jump\t// in\n    tag_183:\n        /* \"#utility.yul\":7276:7388   */\n    tag_182:\n        /* \"#utility.yul\":7397:7451   */\n      tag_184\n        /* \"#utility.yul\":7444:7450   */\n      dup5\n        /* \"#utility.yul\":7439:7442   */\n      dup3\n        /* \"#utility.yul\":7434:7437   */\n      dup6\n        /* \"#utility.yul\":7397:7451   */\n      tag_85\n      jump\t// in\n    tag_184:\n        /* \"#utility.yul\":7116:7457   */\n      pop\n        /* \"#utility.yul\":7032:7457   */\n      swap4\n      swap3\n      pop\n      pop\n      pop\n      jump\t// out\n        /* \"#utility.yul\":7477:7817   */\n    tag_87:\n        /* \"#utility.yul\":7533:7538   */\n      0x00\n        /* \"#utility.yul\":7582:7585   */\n      dup3\n        /* \"#utility.yul\":7575:7579   */\n      0x1f\n        /* \"#utility.yul\":7567:7573   */\n      dup4\n        /* \"#utility.yul\":7563:7580   */\n      add\n        /* \"#utility.yul\":7559:7586   */\n      slt\n        /* \"#utility.yul\":7549:7671   */\n      tag_186\n      jumpi\n        /* \"#utility.yul\":7590:7669   */\n      tag_187\n      tag_80\n      jump\t// in\n    tag_187:\n        /* \"#utility.yul\":7549:7671   */\n    tag_186:\n        /* \"#utility.yul\":7707:7713   */\n      dup2\n        /* \"#utility.yul\":7694:7714   */\n      calldataload\n        /* \"#utility.yul\":7732:7811   */\n      tag_188\n        /* \"#utility.yul\":7807:7810   */\n      dup5\n        /* \"#utility.yul\":7799:7805   */\n      dup3\n        /* \"#utility.yul\":7792:7796   */\n      0x20\n        /* \"#utility.yul\":7784:7790   */\n      dup7\n        /* \"#utility.yul\":7780:7797   */\n      add\n        /* \"#utility.yul\":7732:7811   */\n      tag_86\n      jump\t// in\n    tag_188:\n        /* \"#utility.yul\":7723:7811   */\n      swap2\n      pop\n        /* \"#utility.yul\":7539:7817   */\n      pop\n        /* \"#utility.yul\":7477:7817   */\n      swap3\n      swap2\n      pop\n      pop\n      jump\t// out\n        /* \"#utility.yul\":7823:7945   */\n    tag_88:\n        /* \"#utility.yul\":7896:7920   */\n      tag_190\n        /* \"#utility.yul\":7914:7919   */\n      dup2\n        /* \"#utility.yul\":7896:7920   */\n      tag_69\n      jump\t// in\n    tag_190:\n        /* \"#utility.yul\":7889:7894   */\n      dup2\n        /* \"#utility.yul\":7886:7921   */\n      eq\n        /* \"#utility.yul\":7876:7939   */\n      tag_191\n      jumpi\n        /* \"#utility.yul\":7935:7936   */\n      0x00\n        /* \"#utility.yul\":7932:7933   */\n      dup1\n        /* \"#utility.yul\":7925:7937   */\n      revert\n        /* \"#utility.yul\":7876:7939   */\n    tag_191:\n        /* \"#utility.yul\":7823:7945   */\n      pop\n      jump\t// out\n        /* \"#utility.yul\":7951:8090   */\n    tag_89:\n        /* \"#utility.yul\":7997:8002   */\n      0x00\n        /* \"#utility.yul\":8035:8041   */\n      dup2\n        /* \"#utility.yul\":8022:8042   */\n      calldataload\n        /* \"#utility.yul\":8013:8042   */\n      swap1\n      pop\n        /* \"#utility.yul\":8051:8084   */\n      tag_193\n        /* \"#utility.yul\":8078:8083   */\n      dup2\n        /* \"#utility.yul\":8051:8084   */\n      tag_88\n      jump\t// in\n    tag_193:\n        /* \"#utility.yul\":7951:8090   */\n      swap3\n      swap2\n      pop\n      pop\n      jump\t// out\n        /* \"#utility.yul\":8096:9041   */\n    tag_12:\n        /* \"#utility.yul\":8192:8198   */\n      0x00\n        /* \"#utility.yul\":8200:8206   */\n      dup1\n        /* \"#utility.yul\":8208:8214   */\n      0x00\n        /* \"#utility.yul\":8216:8222   */\n      dup1\n        /* \"#utility.yul\":8265:8268   */\n      0x80\n        /* \"#utility.yul\":8253:8262   */\n      dup6\n        /* \"#utility.yul\":8244:8251   */\n      dup8\n        /* \"#utility.yul\":8240:8263   */\n      sub\n        /* \"#utility.yul\":8236:8269   */\n      slt\n        /* \"#utility.yul\":8233:8353   */\n      iszero\n      tag_195\n      jumpi\n        /* \"#utility.yul\":8272:8351   */\n      tag_196\n      tag_76\n      jump\t// in\n    tag_196:\n        /* \"#utility.yul\":8233:8353   */\n    tag_195:\n        /* \"#utility.yul\":8392:8393   */\n      0x00\n        /* \"#utility.yul\":8417:8470   */\n      tag_197\n        /* \"#utility.yul\":8462:8469   */\n      dup8\n        /* \"#utility.yul\":8453:8459   */\n      dup3\n        /* \"#utility.yul\":8442:8451   */\n      dup9\n        /* \"#utility.yul\":8438:8460   */\n      add\n        /* \"#utility.yul\":8417:8470   */\n      tag_79\n      jump\t// in\n    tag_197:\n        /* \"#utility.yul\":8407:8470   */\n      swap5\n      pop\n        /* \"#utility.yul\":8363:8480   */\n      pop\n        /* \"#utility.yul\":8547:8549   */\n      0x20\n        /* \"#utility.yul\":8536:8545   */\n      dup6\n        /* \"#utility.yul\":8532:8550   */\n      add\n        /* \"#utility.yul\":8519:8551   */\n      calldataload\n        /* \"#utility.yul\":8578:8596   */\n      0xffffffffffffffff\n        /* \"#utility.yul\":8570:8576   */\n      dup2\n        /* \"#utility.yul\":8567:8597   */\n      gt\n        /* \"#utility.yul\":8564:8681   */\n      iszero\n      tag_198\n      jumpi\n        /* \"#utility.yul\":8600:8679   */\n      tag_199\n      tag_77\n      jump\t// in\n    tag_199:\n        /* \"#utility.yul\":8564:8681   */\n    tag_198:\n        /* \"#utility.yul\":8705:8768   */\n      tag_200\n        /* \"#utility.yul\":8760:8767   */\n      dup8\n        /* \"#utility.yul\":8751:8757   */\n      dup3\n        /* \"#utility.yul\":8740:8749   */\n      dup9\n        /* \"#utility.yul\":8736:8758   */\n      add\n        /* \"#utility.yul\":8705:8768   */\n      tag_87\n      jump\t// in\n    tag_200:\n        /* \"#utility.yul\":8695:8768   */\n      swap4\n      pop\n        /* \"#utility.yul\":8490:8778   */\n      pop\n        /* \"#utility.yul\":8817:8819   */\n      0x40\n        /* \"#utility.yul\":8843:8896   */\n      tag_201\n        /* \"#utility.yul\":8888:8895   */\n      dup8\n        /* \"#utility.yul\":8879:8885   */\n      dup3\n        /* \"#utility.yul\":8868:8877   */\n      dup9\n        /* \"#utility.yul\":8864:8886   */\n      add\n        /* \"#utility.yul\":8843:8896   */\n      tag_89\n      jump\t// in\n    tag_201:\n        /* \"#utility.yul\":8833:8896   */\n      swap3\n      pop\n        /* \"#utility.yul\":8788:8906   */\n      pop\n        /* \"#utility.yul\":8945:8947   */\n      0x60\n        /* \"#utility.yul\":8971:9024   */\n      tag_202\n        /* \"#utility.yul\":9016:9023   */\n      dup8\n        /* \"#utility.yul\":9007:9013   */\n      dup3\n        /* \"#utility.yul\":8996:9005   */\n      dup9\n        /* \"#utility.yul\":8992:9014   */\n      add\n        /* \"#utility.yul\":8971:9024   */\n      tag_79\n      jump\t// in\n    tag_202:\n        /* \"#utility.yul\":8961:9024   */\n      swap2\n      pop\n        /* \"#utility.yul\":8916:9034   */\n      pop\n        /* \"#utility.yul\":8096:9041   */\n      swap3\n      swap6\n      swap2\n      swap5\n      pop\n      swap3\n      pop\n      jump\t// out\n        /* \"#utility.yul\":9047:9376   */\n    tag_16:\n        /* \"#utility.yul\":9106:9112   */\n      0x00\n        /* \"#utility.yul\":9155:9157   */\n      0x20\n        /* \"#utility.yul\":9143:9152   */\n      dup3\n        /* \"#utility.yul\":9134:9141   */\n      dup5\n        /* \"#utility.yul\":9130:9153   */\n      sub\n        /* \"#utility.yul\":9126:9158   */\n      slt\n        /* \"#utility.yul\":9123:9242   */\n      iszero\n      tag_204\n      jumpi\n        /* \"#utility.yul\":9161:9240   */\n      tag_205\n      tag_76\n      jump\t// in\n    tag_205:\n        /* \"#utility.yul\":9123:9242   */\n    tag_204:\n        /* \"#utility.yul\":9281:9282   */\n      0x00\n        /* \"#utility.yul\":9306:9359   */\n      tag_206\n        /* \"#utility.yul\":9351:9358   */\n      dup5\n        /* \"#utility.yul\":9342:9348   */\n      dup3\n        /* \"#utility.yul\":9331:9340   */\n      dup6\n        /* \"#utility.yul\":9327:9349   */\n      add\n        /* \"#utility.yul\":9306:9359   */\n      tag_79\n      jump\t// in\n    tag_206:\n        /* \"#utility.yul\":9296:9359   */\n      swap2\n      pop\n        /* \"#utility.yul\":9252:9369   */\n      pop\n        /* \"#utility.yul\":9047:9376   */\n      swap3\n      swap2\n      pop\n      pop\n      jump\t// out\n        /* \"#utility.yul\":9444:10402   */\n    tag_90:\n        /* \"#utility.yul\":9559:9562   */\n      0x00\n        /* \"#utility.yul\":9595:9599   */\n      0x80\n        /* \"#utility.yul\":9590:9593   */\n      dup4\n        /* \"#utility.yul\":9586:9600   */\n      add\n        /* \"#utility.yul\":9687:9691   */\n      0x00\n        /* \"#utility.yul\":9680:9685   */\n      dup4\n        /* \"#utility.yul\":9676:9692   */\n      add\n        /* \"#utility.yul\":9670:9693   */\n      mload\n        /* \"#utility.yul\":9706:9769   */\n      tag_208\n        /* \"#utility.yul\":9763:9767   */\n      0x00\n        /* \"#utility.yul\":9758:9761   */\n      dup7\n        /* \"#utility.yul\":9754:9768   */\n      add\n        /* \"#utility.yul\":9740:9752   */\n      dup3\n        /* \"#utility.yul\":9706:9769   */\n      tag_62\n      jump\t// in\n    tag_208:\n        /* \"#utility.yul\":9610:9779   */\n      pop\n        /* \"#utility.yul\":9861:9865   */\n      0x20\n        /* \"#utility.yul\":9854:9859   */\n      dup4\n        /* \"#utility.yul\":9850:9866   */\n      add\n        /* \"#utility.yul\":9844:9867   */\n      mload\n        /* \"#utility.yul\":9914:9917   */\n      dup5\n        /* \"#utility.yul\":9908:9912   */\n      dup3\n        /* \"#utility.yul\":9904:9918   */\n      sub\n        /* \"#utility.yul\":9897:9901   */\n      0x20\n        /* \"#utility.yul\":9892:9895   */\n      dup7\n        /* \"#utility.yul\":9888:9902   */\n      add\n        /* \"#utility.yul\":9881:9919   */\n      mstore\n        /* \"#utility.yul\":9940:10013   */\n      tag_209\n        /* \"#utility.yul\":10008:10012   */\n      dup3\n        /* \"#utility.yul\":9994:10006   */\n      dup3\n        /* \"#utility.yul\":9940:10013   */\n      tag_67\n      jump\t// in\n    tag_209:\n        /* \"#utility.yul\":9932:10013   */\n      swap2\n      pop\n        /* \"#utility.yul\":9789:10024   */\n      pop\n        /* \"#utility.yul\":10108:10112   */\n      0x40\n        /* \"#utility.yul\":10101:10106   */\n      dup4\n        /* \"#utility.yul\":10097:10113   */\n      add\n        /* \"#utility.yul\":10091:10114   */\n      mload\n        /* \"#utility.yul\":10127:10190   */\n      tag_210\n        /* \"#utility.yul\":10184:10188   */\n      0x40\n        /* \"#utility.yul\":10179:10182   */\n      dup7\n        /* \"#utility.yul\":10175:10189   */\n      add\n        /* \"#utility.yul\":10161:10173   */\n      dup3\n        /* \"#utility.yul\":10127:10190   */\n      tag_70\n      jump\t// in\n    tag_210:\n        /* \"#utility.yul\":10034:10200   */\n      pop\n        /* \"#utility.yul\":10283:10287   */\n      0x60\n        /* \"#utility.yul\":10276:10281   */\n      dup4\n        /* \"#utility.yul\":10272:10288   */\n      add\n        /* \"#utility.yul\":10266:10289   */\n      mload\n        /* \"#utility.yul\":10302:10365   */\n      tag_211\n        /* \"#utility.yul\":10359:10363   */\n      0x60\n        /* \"#utility.yul\":10354:10357   */\n      dup7\n        /* \"#utility.yul\":10350:10364   */\n      add\n        /* \"#utility.yul\":10336:10348   */\n      dup3\n        /* \"#utility.yul\":10302:10365   */\n      tag_62\n      jump\t// in\n    tag_211:\n        /* \"#utility.yul\":10210:10375   */\n      pop\n        /* \"#utility.yul\":10392:10396   */\n      dup1\n        /* \"#utility.yul\":10385:10396   */\n      swap2\n      pop\n        /* \"#utility.yul\":9564:10402   */\n      pop\n        /* \"#utility.yul\":9444:10402   */\n      swap3\n      swap2\n      pop\n      pop\n      jump\t// out\n        /* \"#utility.yul\":10408:10773   */\n    tag_19:\n        /* \"#utility.yul\":10547:10551   */\n      0x00\n        /* \"#utility.yul\":10585:10587   */\n      0x20\n        /* \"#utility.yul\":10574:10583   */\n      dup3\n        /* \"#utility.yul\":10570:10588   */\n      add\n        /* \"#utility.yul\":10562:10588   */\n      swap1\n      pop\n        /* \"#utility.yul\":10634:10643   */\n      dup2\n        /* \"#utility.yul\":10628:10632   */\n      dup2\n        /* \"#utility.yul\":10624:10644   */\n      sub\n        /* \"#utility.yul\":10620:10621   */\n      0x00\n        /* \"#utility.yul\":10609:10618   */\n      dup4\n        /* \"#utility.yul\":10605:10622   */\n      add\n        /* \"#utility.yul\":10598:10645   */\n      mstore\n        /* \"#utility.yul\":10662:10766   */\n      tag_213\n        /* \"#utility.yul\":10761:10765   */\n      dup2\n        /* \"#utility.yul\":10752:10758   */\n      dup5\n        /* \"#utility.yul\":10662:10766   */\n      tag_90\n      jump\t// in\n    tag_213:\n        /* \"#utility.yul\":10654:10766   */\n      swap1\n      pop\n        /* \"#utility.yul\":10408:10773   */\n      swap3\n      swap2\n      pop\n      pop\n      jump\t// out\n        /* \"#utility.yul\":10779:10959   */\n    tag_91:\n        /* \"#utility.yul\":10827:10904   */\n      0x4e487b7100000000000000000000000000000000000000000000000000000000\n        /* \"#utility.yul\":10824:10825   */\n      0x00\n        /* \"#utility.yul\":10817:10905   */\n      mstore\n        /* \"#utility.yul\":10924:10928   */\n      0x22\n        /* \"#utility.yul\":10921:10922   */\n      0x04\n        /* \"#utility.yul\":10914:10929   */\n      mstore\n        /* \"#utility.yul\":10948:10952   */\n      0x24\n        /* \"#utility.yul\":10945:10946   */\n      0x00\n        /* \"#utility.yul\":10938:10953   */\n      revert\n        /* \"#utility.yul\":10965:11285   */\n    tag_32:\n        /* \"#utility.yul\":11009:11015   */\n      0x00\n        /* \"#utility.yul\":11046:11047   */\n      0x02\n        /* \"#utility.yul\":11040:11044   */\n      dup3\n        /* \"#utility.yul\":11036:11048   */\n      div\n        /* \"#utility.yul\":11026:11048   */\n      swap1\n      pop\n        /* \"#utility.yul\":11093:11094   */\n      0x01\n        /* \"#utility.yul\":11087:11091   */\n      dup3\n        /* \"#utility.yul\":11083:11095   */\n      and\n        /* \"#utility.yul\":11114:11132   */\n      dup1\n        /* \"#utility.yul\":11104:11185   */\n      tag_216\n      jumpi\n        /* \"#utility.yul\":11170:11174   */\n      0x7f\n        /* \"#utility.yul\":11162:11168   */\n      dup3\n        /* \"#utility.yul\":11158:11175   */\n      and\n        /* \"#utility.yul\":11148:11175   */\n      swap2\n      pop\n        /* \"#utility.yul\":11104:11185   */\n    tag_216:\n        /* \"#utility.yul\":11232:11234   */\n      0x20\n        /* \"#utility.yul\":11224:11230   */\n      dup3\n        /* \"#utility.yul\":11221:11235   */\n      lt\n        /* \"#utility.yul\":11201:11219   */\n      dup2\n        /* \"#utility.yul\":11198:11236   */\n      sub\n        /* \"#utility.yul\":11195:11279   */\n      tag_217\n      jumpi\n        /* \"#utility.yul\":11251:11269   */\n      tag_218\n      tag_91\n      jump\t// in\n    tag_218:\n        /* \"#utility.yul\":11195:11279   */\n    tag_217:\n        /* \"#utility.yul\":11016:11285   */\n      pop\n        /* \"#utility.yul\":10965:11285   */\n      swap2\n      swap1\n      pop\n      jump\t// out\n        /* \"#utility.yul\":11291:11471   */\n    tag_39:\n        /* \"#utility.yul\":11339:11416   */\n      0x4e487b7100000000000000000000000000000000000000000000000000000000\n        /* \"#utility.yul\":11336:11337   */\n      0x00\n        /* \"#utility.yul\":11329:11417   */\n      mstore\n        /* \"#utility.yul\":11436:11440   */\n      0x32\n        /* \"#utility.yul\":11433:11434   */\n      0x04\n        /* \"#utility.yul\":11426:11441   */\n      mstore\n        /* \"#utility.yul\":11460:11464   */\n      0x24\n        /* \"#utility.yul\":11457:11458   */\n      0x00\n        /* \"#utility.yul\":11450:11465   */\n      revert\n        /* \"#utility.yul\":11477:11657   */\n    tag_92:\n        /* \"#utility.yul\":11525:11602   */\n      0x4e487b7100000000000000000000000000000000000000000000000000000000\n        /* \"#utility.yul\":11522:11523   */\n      0x00\n        /* \"#utility.yul\":11515:11603   */\n      mstore\n        /* \"#utility.yul\":11622:11626   */\n      0x11\n        /* \"#utility.yul\":11619:11620   */\n      0x04\n        /* \"#utility.yul\":11612:11627   */\n      mstore\n        /* \"#utility.yul\":11646:11650   */\n      0x24\n        /* \"#utility.yul\":11643:11644   */\n      0x00\n        /* \"#utility.yul\":11636:11651   */\n      revert\n        /* \"#utility.yul\":11663:11896   */\n    tag_41:\n        /* \"#utility.yul\":11702:11705   */\n      0x00\n        /* \"#utility.yul\":11725:11749   */\n      tag_222\n        /* \"#utility.yul\":11743:11748   */\n      dup3\n        /* \"#utility.yul\":11725:11749   */\n      tag_61\n      jump\t// in\n    tag_222:\n        /* \"#utility.yul\":11716:11749   */\n      swap2\n      pop\n        /* \"#utility.yul\":11771:11837   */\n      0xffffffffffffffffffffffffffffffffffffffffffffffffffffffffffffffff\n        /* \"#utility.yul\":11764:11769   */\n      dup3\n        /* \"#utility.yul\":11761:11838   */\n      sub\n        /* \"#utility.yul\":11758:11861   */\n      tag_223\n      jumpi\n        /* \"#utility.yul\":11841:11859   */\n      tag_224\n      tag_92\n      jump\t// in\n    tag_224:\n        /* \"#utility.yul\":11758:11861   */\n    tag_223:\n        /* \"#utility.yul\":11888:11889   */\n      0x01\n        /* \"#utility.yul\":11881:11886   */\n      dup3\n        /* \"#utility.yul\":11877:11890   */\n      add\n        /* \"#utility.yul\":11870:11890   */\n      swap1\n      pop\n        /* \"#utility.yul\":11663:11896   */\n      swap2\n      swap1\n      pop\n      jump\t// out\n        /* \"#utility.yul\":11902:12071   */\n    tag_93:\n        /* \"#utility.yul\":11986:11997   */\n      0x00\n        /* \"#utility.yul\":12020:12026   */\n      dup3\n        /* \"#utility.yul\":12015:12018   */\n      dup3\n        /* \"#utility.yul\":12008:12027   */\n      mstore\n        /* \"#utility.yul\":12060:12064   */\n      0x20\n        /* \"#utility.yul\":12055:12058   */\n      dup3\n        /* \"#utility.yul\":12051:12065   */\n      add\n        /* \"#utility.yul\":12036:12065   */\n      swap1\n      pop\n        /* \"#utility.yul\":11902:12071   */\n      swap3\n      swap2\n      pop\n      pop\n      jump\t// out\n        /* \"#utility.yul\":12077:12299   */\n    tag_94:\n        /* \"#utility.yul\":12217:12251   */\n      0x50726f6475637420776974682073616d6520494420616c726561647920657869\n        /* \"#utility.yul\":12213:12214   */\n      0x00\n        /* \"#utility.yul\":12205:12211   */\n      dup3\n        /* \"#utility.yul\":12201:12215   */\n      add\n        /* \"#utility.yul\":12194:12252   */\n      mstore\n        /* \"#utility.yul\":12286:12291   */\n      0x7374730000000000000000000000000000000000000000000000000000000000\n        /* \"#utility.yul\":12281:12283   */\n      0x20\n        /* \"#utility.yul\":12273:12279   */\n      dup3\n        /* \"#utility.yul\":12269:12284   */\n      add\n        /* \"#utility.yul\":12262:12292   */\n      mstore\n        /* \"#utility.yul\":12077:12299   */\n      pop\n      jump\t// out\n        /* \"#utility.yul\":12305:12671   */\n    tag_95:\n        /* \"#utility.yul\":12447:12450   */\n      0x00\n        /* \"#utility.yul\":12468:12535   */\n      tag_228\n        /* \"#utility.yul\":12532:12534   */\n      0x23\n        /* \"#utility.yul\":12527:12530   */\n      dup4\n        /* \"#utility.yul\":12468:12535   */\n      tag_93\n      jump\t// in\n    tag_228:\n        /* \"#utility.yul\":12461:12535   */\n      swap2\n      pop\n        /* \"#utility.yul\":12544:12637   */\n      tag_229\n        /* \"#utility.yul\":12633:12636   */\n      dup3\n        /* \"#utility.yul\":12544:12637   */\n      tag_94\n      jump\t// in\n    tag_229:\n        /* \"#utility.yul\":12662:12664   */\n      0x40\n        /* \"#utility.yul\":12657:12660   */\n      dup3\n        /* \"#utility.yul\":12653:12665   */\n      add\n        /* \"#utility.yul\":12646:12665   */\n      swap1\n      pop\n        /* \"#utility.yul\":12305:12671   */\n      swap2\n      swap1\n      pop\n      jump\t// out\n        /* \"#utility.yul\":12677:13096   */\n    tag_45:\n        /* \"#utility.yul\":12843:12847   */\n      0x00\n        /* \"#utility.yul\":12881:12883   */\n      0x20\n        /* \"#utility.yul\":12870:12879   */\n      dup3\n        /* \"#utility.yul\":12866:12884   */\n      add\n        /* \"#utility.yul\":12858:12884   */\n      swap1\n      pop\n        /* \"#utility.yul\":12930:12939   */\n      dup2\n        /* \"#utility.yul\":12924:12928   */\n      dup2\n        /* \"#utility.yul\":12920:12940   */\n      sub\n        /* \"#utility.yul\":12916:12917   */\n      0x00\n        /* \"#utility.yul\":12905:12914   */\n      dup4\n        /* \"#utility.yul\":12901:12918   */\n      add\n        /* \"#utility.yul\":12894:12941   */\n      mstore\n        /* \"#utility.yul\":12958:13089   */\n      tag_231\n        /* \"#utility.yul\":13084:13088   */\n      dup2\n        /* \"#utility.yul\":12958:13089   */\n      tag_95\n      jump\t// in\n    tag_231:\n        /* \"#utility.yul\":12950:13089   */\n      swap1\n      pop\n        /* \"#utility.yul\":12677:13096   */\n      swap2\n      swap1\n      pop\n      jump\t// out\n        /* \"#utility.yul\":13102:13243   */\n    tag_96:\n        /* \"#utility.yul\":13151:13155   */\n      0x00\n        /* \"#utility.yul\":13174:13177   */\n      dup2\n        /* \"#utility.yul\":13166:13177   */\n      swap1\n      pop\n        /* \"#utility.yul\":13197:13200   */\n      dup2\n        /* \"#utility.yul\":13194:13195   */\n      0x00\n        /* \"#utility.yul\":13187:13201   */\n      mstore\n        /* \"#utility.yul\":13231:13235   */\n      0x20\n        /* \"#utility.yul\":13228:13229   */\n      0x00\n        /* \"#utility.yul\":13218:13236   */\n      keccak256\n        /* \"#utility.yul\":13210:13236   */\n      swap1\n      pop\n        /* \"#utility.yul\":13102:13243   */\n      swap2\n      swap1\n      pop\n      jump\t// out\n        /* \"#utility.yul\":13249:13342   */\n    tag_97:\n        /* \"#utility.yul\":13286:13292   */\n      0x00\n        /* \"#utility.yul\":13333:13335   */\n      0x20\n        /* \"#utility.yul\":13328:13330   */\n      0x1f\n        /* \"#utility.yul\":13321:13326   */\n      dup4\n        /* \"#utility.yul\":13317:13331   */\n      add\n        /* \"#utility.yul\":13313:13336   */\n      div\n        /* \"#utility.yul\":13303:13336   */\n      swap1\n      pop\n        /* \"#utility.yul\":13249:13342   */\n      swap2\n      swap1\n      pop\n      jump\t// out\n        /* \"#utility.yul\":13348:13455   */\n    tag_98:\n        /* \"#utility.yul\":13392:13400   */\n      0x00\n        /* \"#utility.yul\":13442:13447   */\n      dup3\n        /* \"#utility.yul\":13436:13440   */\n      dup3\n        /* \"#utility.yul\":13432:13448   */\n      shl\n        /* \"#utility.yul\":13411:13448   */\n      swap1\n      pop\n        /* \"#utility.yul\":13348:13455   */\n      swap3\n      swap2\n      pop\n      pop\n      jump\t// out\n        /* \"#utility.yul\":13461:13854   */\n    tag_99:\n        /* \"#utility.yul\":13530:13536   */\n      0x00\n        /* \"#utility.yul\":13580:13581   */\n      0x08\n        /* \"#utility.yul\":13568:13578   */\n      dup4\n        /* \"#utility.yul\":13564:13582   */\n      mul\n        /* \"#utility.yul\":13603:13700   */\n      tag_236\n        /* \"#utility.yul\":13633:13699   */\n      0xffffffffffffffffffffffffffffffffffffffffffffffffffffffffffffffff\n        /* \"#utility.yul\":13622:13631   */\n      dup3\n        /* \"#utility.yul\":13603:13700   */\n      tag_98\n      jump\t// in\n    tag_236:\n        /* \"#utility.yul\":13721:13760   */\n      tag_237\n        /* \"#utility.yul\":13751:13759   */\n      dup7\n        /* \"#utility.yul\":13740:13749   */\n      dup4\n        /* \"#utility.yul\":13721:13760   */\n      tag_98\n      jump\t// in\n    tag_237:\n        /* \"#utility.yul\":13709:13760   */\n      swap6\n      pop\n        /* \"#utility.yul\":13793:13797   */\n      dup1\n        /* \"#utility.yul\":13789:13798   */\n      not\n        /* \"#utility.yul\":13782:13787   */\n      dup5\n        /* \"#utility.yul\":13778:13799   */\n      and\n        /* \"#utility.yul\":13769:13799   */\n      swap4\n      pop\n        /* \"#utility.yul\":13842:13846   */\n      dup1\n        /* \"#utility.yul\":13832:13840   */\n      dup7\n        /* \"#utility.yul\":13828:13847   */\n      and\n        /* \"#utility.yul\":13821:13826   */\n      dup5\n        /* \"#utility.yul\":13818:13848   */\n      or\n        /* \"#utility.yul\":13808:13848   */\n      swap3\n      pop\n        /* \"#utility.yul\":13537:13854   */\n      pop\n      pop\n        /* \"#utility.yul\":13461:13854   */\n      swap4\n      swap3\n      pop\n      pop\n      pop\n      jump\t// out\n        /* \"#utility.yul\":13860:13920   */\n    tag_100:\n        /* \"#utility.yul\":13888:13891   */\n      0x00\n        /* \"#utility.yul\":13909:13914   */\n      dup2\n        /* \"#utility.yul\":13902:13914   */\n      swap1\n      pop\n        /* \"#utility.yul\":13860:13920   */\n      swap2\n      swap1\n      pop\n      jump\t// out\n        /* \"#utility.yul\":13926:14068   */\n    tag_101:\n        /* \"#utility.yul\":13976:13985   */\n      0x00\n        /* \"#utility.yul\":14009:14062   */\n      tag_240\n        /* \"#utility.yul\":14027:14061   */\n      tag_241\n        /* \"#utility.yul\":14036:14060   */\n      tag_242\n        /* \"#utility.yul\":14054:14059   */\n      dup5\n        /* \"#utility.yul\":14036:14060   */\n      tag_61\n      jump\t// in\n    tag_242:\n        /* \"#utility.yul\":14027:14061   */\n      tag_100\n      jump\t// in\n    tag_241:\n        /* \"#utility.yul\":14009:14062   */\n      tag_61\n      jump\t// in\n    tag_240:\n        /* \"#utility.yul\":13996:14062   */\n      swap1\n      pop\n        /* \"#utility.yul\":13926:14068   */\n      swap2\n      swap1\n      pop\n      jump\t// out\n        /* \"#utility.yul\":14074:14149   */\n    tag_102:\n        /* \"#utility.yul\":14117:14120   */\n      0x00\n        /* \"#utility.yul\":14138:14143   */\n      dup2\n        /* \"#utility.yul\":14131:14143   */\n      swap1\n      pop\n        /* \"#utility.yul\":14074:14149   */\n      swap2\n      swap1\n      pop\n      jump\t// out\n        /* \"#utility.yul\":14155:14424   */\n    tag_103:\n        /* \"#utility.yul\":14265:14304   */\n      tag_245\n        /* \"#utility.yul\":14296:14303   */\n      dup4\n        /* \"#utility.yul\":14265:14304   */\n      tag_101\n      jump\t// in\n    tag_245:\n        /* \"#utility.yul\":14326:14417   */\n      tag_246\n        /* \"#utility.yul\":14375:14416   */\n      tag_247\n        /* \"#utility.yul\":14399:14415   */\n      dup3\n        /* \"#utility.yul\":14375:14416   */\n      tag_102\n      jump\t// in\n    tag_247:\n        /* \"#utility.yul\":14367:14373   */\n      dup5\n        /* \"#utility.yul\":14360:14364   */\n      dup5\n        /* \"#utility.yul\":14354:14365   */\n      sload\n        /* \"#utility.yul\":14326:14417   */\n      tag_99\n      jump\t// in\n    tag_246:\n        /* \"#utility.yul\":14320:14324   */\n      dup3\n        /* \"#utility.yul\":14313:14418   */\n      sstore\n        /* \"#utility.yul\":14231:14424   */\n      pop\n        /* \"#utility.yul\":14155:14424   */\n      pop\n      pop\n      pop\n      jump\t// out\n        /* \"#utility.yul\":14430:14503   */\n    tag_104:\n        /* \"#utility.yul\":14475:14478   */\n      0x00\n        /* \"#utility.yul\":14430:14503   */\n      swap1\n      jump\t// out\n        /* \"#utility.yul\":14509:14698   */\n    tag_105:\n        /* \"#utility.yul\":14586:14618   */\n      tag_250\n      tag_104\n      jump\t// in\n    tag_250:\n        /* \"#utility.yul\":14627:14692   */\n      tag_251\n        /* \"#utility.yul\":14685:14691   */\n      dup2\n        /* \"#utility.yul\":14677:14683   */\n      dup5\n        /* \"#utility.yul\":14671:14675   */\n      dup5\n        /* \"#utility.yul\":14627:14692   */\n      tag_103\n      jump\t// in\n    tag_251:\n        /* \"#utility.yul\":14562:14698   */\n      pop\n        /* \"#utility.yul\":14509:14698   */\n      pop\n      pop\n      jump\t// out\n        /* \"#utility.yul\":14704:14890   */\n    tag_106:\n        /* \"#utility.yul\":14764:14884   */\n    tag_253:\n        /* \"#utility.yul\":14781:14784   */\n      dup2\n        /* \"#utility.yul\":14774:14779   */\n      dup2\n        /* \"#utility.yul\":14771:14785   */\n      lt\n        /* \"#utility.yul\":14764:14884   */\n      iszero\n      tag_255\n      jumpi\n        /* \"#utility.yul\":14835:14874   */\n      tag_256\n        /* \"#utility.yul\":14872:14873   */\n      0x00\n        /* \"#utility.yul\":14865:14870   */\n      dup3\n        /* \"#utility.yul\":14835:14874   */\n      tag_105\n      jump\t// in\n    tag_256:\n        /* \"#utility.yul\":14808:14809   */\n      0x01\n        /* \"#utility.yul\":14801:14806   */\n      dup2\n        /* \"#utility.yul\":14797:14810   */\n      add\n        /* \"#utility.yul\":14788:14810   */\n      swap1\n      pop\n        /* \"#utility.yul\":14764:14884   */\n      jump(tag_253)\n    tag_255:\n        /* \"#utility.yul\":14704:14890   */\n      pop\n      pop\n      jump\t// out\n        /* \"#utility.yul\":14896:15439   */\n    tag_107:\n        /* \"#utility.yul\":14997:14999   */\n      0x1f\n        /* \"#utility.yul\":14992:14995   */\n      dup3\n        /* \"#utility.yul\":14989:15000   */\n      gt\n        /* \"#utility.yul\":14986:15432   */\n      iszero\n      tag_258\n      jumpi\n        /* \"#utility.yul\":15031:15069   */\n      tag_259\n        /* \"#utility.yul\":15063:15068   */\n      dup2\n        /* \"#utility.yul\":15031:15069   */\n      tag_96\n      jump\t// in\n    tag_259:\n        /* \"#utility.yul\":15115:15144   */\n      tag_260\n        /* \"#utility.yul\":15133:15143   */\n      dup5\n        /* \"#utility.yul\":15115:15144   */\n      tag_97\n      jump\t// in\n    tag_260:\n        /* \"#utility.yul\":15105:15113   */\n      dup2\n        /* \"#utility.yul\":15101:15145   */\n      add\n        /* \"#utility.yul\":15298:15300   */\n      0x20\n        /* \"#utility.yul\":15286:15296   */\n      dup6\n        /* \"#utility.yul\":15283:15301   */\n      lt\n        /* \"#utility.yul\":15280:15329   */\n      iszero\n      tag_261\n      jumpi\n        /* \"#utility.yul\":15319:15327   */\n      dup2\n        /* \"#utility.yul\":15304:15327   */\n      swap1\n      pop\n        /* \"#utility.yul\":15280:15329   */\n    tag_261:\n        /* \"#utility.yul\":15342:15422   */\n      tag_262\n        /* \"#utility.yul\":15398:15420   */\n      tag_263\n        /* \"#utility.yul\":15416:15419   */\n      dup6\n        /* \"#utility.yul\":15398:15420   */\n      tag_97\n      jump\t// in\n    tag_263:\n        /* \"#utility.yul\":15388:15396   */\n      dup4\n        /* \"#utility.yul\":15384:15421   */\n      add\n        /* \"#utility.yul\":15371:15382   */\n      dup3\n        /* \"#utility.yul\":15342:15422   */\n      tag_106\n      jump\t// in\n    tag_262:\n        /* \"#utility.yul\":15001:15432   */\n      pop\n      pop\n        /* \"#utility.yul\":14986:15432   */\n    tag_258:\n        /* \"#utility.yul\":14896:15439   */\n      pop\n      pop\n      pop\n      jump\t// out\n        /* \"#utility.yul\":15445:15562   */\n    tag_108:\n        /* \"#utility.yul\":15499:15507   */\n      0x00\n        /* \"#utility.yul\":15549:15554   */\n      dup3\n        /* \"#utility.yul\":15543:15547   */\n      dup3\n        /* \"#utility.yul\":15539:15555   */\n      shr\n        /* \"#utility.yul\":15518:15555   */\n      swap1\n      pop\n        /* \"#utility.yul\":15445:15562   */\n      swap3\n      swap2\n      pop\n      pop\n      jump\t// out\n        /* \"#utility.yul\":15568:15737   */\n    tag_109:\n        /* \"#utility.yul\":15612:15618   */\n      0x00\n        /* \"#utility.yul\":15645:15696   */\n      tag_266\n        /* \"#utility.yul\":15693:15694   */\n      0x00\n        /* \"#utility.yul\":15689:15695   */\n      not\n        /* \"#utility.yul\":15681:15686   */\n      dup5\n        /* \"#utility.yul\":15678:15679   */\n      0x08\n        /* \"#utility.yul\":15674:15687   */\n      mul\n        /* \"#utility.yul\":15645:15696   */\n      tag_108\n      jump\t// in\n    tag_266:\n        /* \"#utility.yul\":15641:15697   */\n      not\n        /* \"#utility.yul\":15726:15730   */\n      dup1\n        /* \"#utility.yul\":15720:15724   */\n      dup4\n        /* \"#utility.yul\":15716:15731   */\n      and\n        /* \"#utility.yul\":15706:15731   */\n      swap2\n      pop\n        /* \"#utility.yul\":15619:15737   */\n      pop\n        /* \"#utility.yul\":15568:15737   */\n      swap3\n      swap2\n      pop\n      pop\n      jump\t// out\n        /* \"#utility.yul\":15742:16037   */\n    tag_110:\n        /* \"#utility.yul\":15818:15822   */\n      0x00\n        /* \"#utility.yul\":15964:15993   */\n      tag_268\n        /* \"#utility.yul\":15989:15992   */\n      dup4\n        /* \"#utility.yul\":15983:15987   */\n      dup4\n        /* \"#utility.yul\":15964:15993   */\n      tag_109\n      jump\t// in\n    tag_268:\n        /* \"#utility.yul\":15956:15993   */\n      swap2\n      pop\n        /* \"#utility.yul\":16026:16029   */\n      dup3\n        /* \"#utility.yul\":16023:16024   */\n      0x02\n        /* \"#utility.yul\":16019:16030   */\n      mul\n        /* \"#utility.yul\":16013:16017   */\n      dup3\n        /* \"#utility.yul\":16010:16031   */\n      or\n        /* \"#utility.yul\":16002:16031   */\n      swap1\n      pop\n        /* \"#utility.yul\":15742:16037   */\n      swap3\n      swap2\n      pop\n      pop\n      jump\t// out\n        /* \"#utility.yul\":16042:17437   */\n    tag_47:\n        /* \"#utility.yul\":16159:16196   */\n      tag_270\n        /* \"#utility.yul\":16192:16195   */\n      dup3\n        /* \"#utility.yul\":16159:16196   */\n      tag_63\n      jump\t// in\n    tag_270:\n        /* \"#utility.yul\":16261:16279   */\n      0xffffffffffffffff\n        /* \"#utility.yul\":16253:16259   */\n      dup2\n        /* \"#utility.yul\":16250:16280   */\n      gt\n        /* \"#utility.yul\":16247:16303   */\n      iszero\n      tag_271\n      jumpi\n        /* \"#utility.yul\":16283:16301   */\n      tag_272\n      tag_23\n      jump\t// in\n    tag_272:\n        /* \"#utility.yul\":16247:16303   */\n    tag_271:\n        /* \"#utility.yul\":16327:16365   */\n      tag_273\n        /* \"#utility.yul\":16359:16363   */\n      dup3\n        /* \"#utility.yul\":16353:16364   */\n      sload\n        /* \"#utility.yul\":16327:16365   */\n      tag_32\n      jump\t// in\n    tag_273:\n        /* \"#utility.yul\":16412:16479   */\n      tag_274\n        /* \"#utility.yul\":16472:16478   */\n      dup3\n        /* \"#utility.yul\":16464:16470   */\n      dup3\n        /* \"#utility.yul\":16458:16462   */\n      dup6\n        /* \"#utility.yul\":16412:16479   */\n      tag_107\n      jump\t// in\n    tag_274:\n        /* \"#utility.yul\":16506:16507   */\n      0x00\n        /* \"#utility.yul\":16530:16534   */\n      0x20\n        /* \"#utility.yul\":16517:16534   */\n      swap1\n      pop\n        /* \"#utility.yul\":16562:16564   */\n      0x1f\n        /* \"#utility.yul\":16554:16560   */\n      dup4\n        /* \"#utility.yul\":16551:16565   */\n      gt\n        /* \"#utility.yul\":16579:16580   */\n      0x01\n        /* \"#utility.yul\":16574:17192   */\n      dup2\n      eq\n      tag_276\n      jumpi\n        /* \"#utility.yul\":17236:17237   */\n      0x00\n        /* \"#utility.yul\":17253:17259   */\n      dup5\n        /* \"#utility.yul\":17250:17327   */\n      iszero\n      tag_277\n      jumpi\n        /* \"#utility.yul\":17302:17311   */\n      dup3\n        /* \"#utility.yul\":17297:17300   */\n      dup8\n        /* \"#utility.yul\":17293:17312   */\n      add\n        /* \"#utility.yul\":17287:17313   */\n      mload\n        /* \"#utility.yul\":17278:17313   */\n      swap1\n      pop\n        /* \"#utility.yul\":17250:17327   */\n    tag_277:\n        /* \"#utility.yul\":17353:17420   */\n      tag_278\n        /* \"#utility.yul\":17413:17419   */\n      dup6\n        /* \"#utility.yul\":17406:17411   */\n      dup3\n        /* \"#utility.yul\":17353:17420   */\n      tag_110\n      jump\t// in\n    tag_278:\n        /* \"#utility.yul\":17347:17351   */\n      dup7\n        /* \"#utility.yul\":17340:17421   */\n      sstore\n        /* \"#utility.yul\":17209:17431   */\n      pop\n        /* \"#utility.yul\":16544:17431   */\n      jump(tag_275)\n        /* \"#utility.yul\":16574:17192   */\n    tag_276:\n        /* \"#utility.yul\":16626:16630   */\n      0x1f\n        /* \"#utility.yul\":16622:16631   */\n      not\n        /* \"#utility.yul\":16614:16620   */\n      dup5\n        /* \"#utility.yul\":16610:16632   */\n      and\n        /* \"#utility.yul\":16660:16697   */\n      tag_279\n        /* \"#utility.yul\":16692:16696   */\n      dup7\n        /* \"#utility.yul\":16660:16697   */\n      tag_96\n      jump\t// in\n    tag_279:\n        /* \"#utility.yul\":16719:16720   */\n      0x00\n        /* \"#utility.yul\":16733:16941   */\n    tag_280:\n        /* \"#utility.yul\":16747:16754   */\n      dup3\n        /* \"#utility.yul\":16744:16745   */\n      dup2\n        /* \"#utility.yul\":16741:16755   */\n      lt\n        /* \"#utility.yul\":16733:16941   */\n      iszero\n      tag_282\n      jumpi\n        /* \"#utility.yul\":16826:16835   */\n      dup5\n        /* \"#utility.yul\":16821:16824   */\n      dup10\n        /* \"#utility.yul\":16817:16836   */\n      add\n        /* \"#utility.yul\":16811:16837   */\n      mload\n        /* \"#utility.yul\":16803:16809   */\n      dup3\n        /* \"#utility.yul\":16796:16838   */\n      sstore\n        /* \"#utility.yul\":16877:16878   */\n      0x01\n        /* \"#utility.yul\":16869:16875   */\n      dup3\n        /* \"#utility.yul\":16865:16879   */\n      add\n        /* \"#utility.yul\":16855:16879   */\n      swap2\n      pop\n        /* \"#utility.yul\":16924:16926   */\n      0x20\n        /* \"#utility.yul\":16913:16922   */\n      dup6\n        /* \"#utility.yul\":16909:16927   */\n      add\n        /* \"#utility.yul\":16896:16927   */\n      swap5\n      pop\n        /* \"#utility.yul\":16770:16774   */\n      0x20\n        /* \"#utility.yul\":16767:16768   */\n      dup2\n        /* \"#utility.yul\":16763:16775   */\n      add\n        /* \"#utility.yul\":16758:16775   */\n      swap1\n      pop\n        /* \"#utility.yul\":16733:16941   */\n      jump(tag_280)\n    tag_282:\n        /* \"#utility.yul\":16969:16975   */\n      dup7\n        /* \"#utility.yul\":16960:16967   */\n      dup4\n        /* \"#utility.yul\":16957:16976   */\n      lt\n        /* \"#utility.yul\":16954:17133   */\n      iszero\n      tag_283\n      jumpi\n        /* \"#utility.yul\":17027:17036   */\n      dup5\n        /* \"#utility.yul\":17022:17025   */\n      dup10\n        /* \"#utility.yul\":17018:17037   */\n      add\n        /* \"#utility.yul\":17012:17038   */\n      mload\n        /* \"#utility.yul\":17070:17118   */\n      tag_284\n        /* \"#utility.yul\":17112:17116   */\n      0x1f\n        /* \"#utility.yul\":17104:17110   */\n      dup10\n        /* \"#utility.yul\":17100:17117   */\n      and\n        /* \"#utility.yul\":17089:17098   */\n      dup3\n        /* \"#utility.yul\":17070:17118   */\n      tag_109\n      jump\t// in\n    tag_284:\n        /* \"#utility.yul\":17062:17068   */\n      dup4\n        /* \"#utility.yul\":17055:17119   */\n      sstore\n        /* \"#utility.yul\":16977:17133   */\n      pop\n        /* \"#utility.yul\":16954:17133   */\n    tag_283:\n        /* \"#utility.yul\":17179:17180   */\n      0x01\n        /* \"#utility.yul\":17175:17176   */\n      0x02\n        /* \"#utility.yul\":17167:17173   */\n      dup9\n        /* \"#utility.yul\":17163:17177   */\n      mul\n        /* \"#utility.yul\":17159:17181   */\n      add\n        /* \"#utility.yul\":17153:17157   */\n      dup9\n        /* \"#utility.yul\":17146:17182   */\n      sstore\n        /* \"#utility.yul\":16581:17192   */\n      pop\n      pop\n      pop\n        /* \"#utility.yul\":16544:17431   */\n    tag_275:\n      pop\n        /* \"#utility.yul\":16134:17437   */\n      pop\n      pop\n      pop\n        /* \"#utility.yul\":16042:17437   */\n      pop\n      pop\n      jump\t// out\n        /* \"#utility.yul\":17443:17561   */\n    tag_111:\n        /* \"#utility.yul\":17530:17554   */\n      tag_286\n        /* \"#utility.yul\":17548:17553   */\n      dup2\n        /* \"#utility.yul\":17530:17554   */\n      tag_61\n      jump\t// in\n    tag_286:\n        /* \"#utility.yul\":17525:17528   */\n      dup3\n        /* \"#utility.yul\":17518:17555   */\n      mstore\n        /* \"#utility.yul\":17443:17561   */\n      pop\n      pop\n      jump\t// out\n        /* \"#utility.yul\":17567:17944   */\n    tag_112:\n        /* \"#utility.yul\":17655:17658   */\n      0x00\n        /* \"#utility.yul\":17683:17722   */\n      tag_288\n        /* \"#utility.yul\":17716:17721   */\n      dup3\n        /* \"#utility.yul\":17683:17722   */\n      tag_63\n      jump\t// in\n    tag_288:\n        /* \"#utility.yul\":17738:17809   */\n      tag_289\n        /* \"#utility.yul\":17802:17808   */\n      dup2\n        /* \"#utility.yul\":17797:17800   */\n      dup6\n        /* \"#utility.yul\":17738:17809   */\n      tag_93\n      jump\t// in\n    tag_289:\n        /* \"#utility.yul\":17731:17809   */\n      swap4\n      pop\n        /* \"#utility.yul\":17818:17883   */\n      tag_290\n        /* \"#utility.yul\":17876:17882   */\n      dup2\n        /* \"#utility.yul\":17871:17874   */\n      dup6\n        /* \"#utility.yul\":17864:17868   */\n      0x20\n        /* \"#utility.yul\":17857:17862   */\n      dup7\n        /* \"#utility.yul\":17853:17869   */\n      add\n        /* \"#utility.yul\":17818:17883   */\n      tag_65\n      jump\t// in\n    tag_290:\n        /* \"#utility.yul\":17908:17937   */\n      tag_291\n        /* \"#utility.yul\":17930:17936   */\n      dup2\n        /* \"#utility.yul\":17908:17937   */\n      tag_66\n      jump\t// in\n    tag_291:\n        /* \"#utility.yul\":17903:17906   */\n      dup5\n        /* \"#utility.yul\":17899:17938   */\n      add\n        /* \"#utility.yul\":17892:17938   */\n      swap2\n      pop\n        /* \"#utility.yul\":17659:17944   */\n      pop\n        /* \"#utility.yul\":17567:17944   */\n      swap3\n      swap2\n      pop\n      pop\n      jump\t// out\n        /* \"#utility.yul\":17950:18483   */\n    tag_50:\n        /* \"#utility.yul\":18119:18123   */\n      0x00\n        /* \"#utility.yul\":18157:18159   */\n      0x60\n        /* \"#utility.yul\":18146:18155   */\n      dup3\n        /* \"#utility.yul\":18142:18160   */\n      add\n        /* \"#utility.yul\":18134:18160   */\n      swap1\n      pop\n        /* \"#utility.yul\":18170:18241   */\n      tag_293\n        /* \"#utility.yul\":18238:18239   */\n      0x00\n        /* \"#utility.yul\":18227:18236   */\n      dup4\n        /* \"#utility.yul\":18223:18240   */\n      add\n        /* \"#utility.yul\":18214:18220   */\n      dup7\n        /* \"#utility.yul\":18170:18241   */\n      tag_111\n      jump\t// in\n    tag_293:\n        /* \"#utility.yul\":18288:18297   */\n      dup2\n        /* \"#utility.yul\":18282:18286   */\n      dup2\n        /* \"#utility.yul\":18278:18298   */\n      sub\n        /* \"#utility.yul\":18273:18275   */\n      0x20\n        /* \"#utility.yul\":18262:18271   */\n      dup4\n        /* \"#utility.yul\":18258:18276   */\n      add\n        /* \"#utility.yul\":18251:18299   */\n      mstore\n        /* \"#utility.yul\":18316:18394   */\n      tag_294\n        /* \"#utility.yul\":18389:18393   */\n      dup2\n        /* \"#utility.yul\":18380:18386   */\n      dup6\n        /* \"#utility.yul\":18316:18394   */\n      tag_112\n      jump\t// in\n    tag_294:\n        /* \"#utility.yul\":18308:18394   */\n      swap1\n      pop\n        /* \"#utility.yul\":18404:18476   */\n      tag_295\n        /* \"#utility.yul\":18472:18474   */\n      0x40\n        /* \"#utility.yul\":18461:18470   */\n      dup4\n        /* \"#utility.yul\":18457:18475   */\n      add\n        /* \"#utility.yul\":18448:18454   */\n      dup5\n        /* \"#utility.yul\":18404:18476   */\n      tag_111\n      jump\t// in\n    tag_295:\n        /* \"#utility.yul\":17950:18483   */\n      swap5\n      swap4\n      pop\n      pop\n      pop\n      pop\n      jump\t// out\n\n    auxdata: 0xa2646970667358221220ffeb81f195dceac43180859d5bcbc37dd75622678752d1e0da5a558dd96a666564736f6c63430008120033\n}\n",
				"bytecode": {
					"linkReferences": {},
					"object": "608060405234801561001057600080fd5b50610f92806100206000396000f3fe608060405234801561001057600080fd5b50600436106100415760003560e01c806302ee3a521461004657806331a41444146100645780633f70c2b414610080575b600080fd5b61004e6100b0565b60405161005b91906107b7565b60405180910390f35b61007e6004803603810190610079919061097a565b61026b565b005b61009a600480360381019061009591906109fd565b610442565b6040516100a79190610a8d565b60405180910390f35b6060600060015467ffffffffffffffff8111156100d0576100cf610823565b5b60405190808252806020026020018201604052801561010957816020015b6100f661056a565b8152602001906001900390816100ee5790505b50905060005b600154811015610263576000808281526020019081526020016000206040518060800160405290816000820154815260200160018201805461015090610ade565b80601f016020809104026020016040519081016040528092919081815260200182805461017c90610ade565b80156101c95780601f1061019e576101008083540402835291602001916101c9565b820191906000526020600020905b8154815290600101906020018083116101ac57829003601f168201915b505050505081526020016002820160009054906101000a900473ffffffffffffffffffffffffffffffffffffffff1673ffffffffffffffffffffffffffffffffffffffff1673ffffffffffffffffffffffffffffffffffffffff16815260200160038201548152505082828151811061024557610244610b0f565b5b6020026020010181905250808061025b90610b6d565b91505061010f565b508091505090565b600073ffffffffffffffffffffffffffffffffffffffff1660008086815260200190815260200160002060020160009054906101000a900473ffffffffffffffffffffffffffffffffffffffff1673ffffffffffffffffffffffffffffffffffffffff161461030f576040517f08c379a000000000000000000000000000000000000000000000000000000000815260040161030690610c38565b60405180910390fd5b600060405180608001604052808681526020018581526020018473ffffffffffffffffffffffffffffffffffffffff1681526020018381525090508060008087815260200190815260200160002060008201518160000155602082015181600101908161037c9190610e04565b5060408201518160020160006101000a81548173ffffffffffffffffffffffffffffffffffffffff021916908373ffffffffffffffffffffffffffffffffffffffff16021790555060608201518160030155905050600160008154809291906103e490610b6d565b91905055508273ffffffffffffffffffffffffffffffffffffffff167f27053d27a5eb2a68ec20c3e8b30cbfbbe7bb019458aaac90ba4606956f97c8d686868560405161043393929190610f1e565b60405180910390a25050505050565b61044a61056a565b6000808381526020019081526020016000206040518060800160405290816000820154815260200160018201805461048190610ade565b80601f01602080910402602001604051908101604052809291908181526020018280546104ad90610ade565b80156104fa5780601f106104cf576101008083540402835291602001916104fa565b820191906000526020600020905b8154815290600101906020018083116104dd57829003601f168201915b505050505081526020016002820160009054906101000a900473ffffffffffffffffffffffffffffffffffffffff1673ffffffffffffffffffffffffffffffffffffffff1673ffffffffffffffffffffffffffffffffffffffff1681526020016003820154815250509050919050565b60405180608001604052806000815260200160608152602001600073ffffffffffffffffffffffffffffffffffffffff168152602001600081525090565b600081519050919050565b600082825260208201905092915050565b6000819050602082019050919050565b6000819050919050565b6105e7816105d4565b82525050565b600081519050919050565b600082825260208201905092915050565b60005b8381101561062757808201518184015260208101905061060c565b60008484015250505050565b6000601f19601f8301169050919050565b600061064f826105ed565b61065981856105f8565b9350610669818560208601610609565b61067281610633565b840191505092915050565b600073ffffffffffffffffffffffffffffffffffffffff82169050919050565b60006106a88261067d565b9050919050565b6106b88161069d565b82525050565b60006080830160008301516106d660008601826105de565b50602083015184820360208601526106ee8282610644565b915050604083015161070360408601826106af565b50606083015161071660608601826105de565b508091505092915050565b600061072d83836106be565b905092915050565b6000602082019050919050565b600061074d826105a8565b61075781856105b3565b935083602082028501610769856105c4565b8060005b858110156107a557848403895281516107868582610721565b945061079183610735565b925060208a0199505060018101905061076d565b50829750879550505050505092915050565b600060208201905081810360008301526107d18184610742565b905092915050565b6000604051905090565b600080fd5b600080fd5b6107f6816105d4565b811461080157600080fd5b50565b600081359050610813816107ed565b92915050565b600080fd5b600080fd5b7f4e487b7100000000000000000000000000000000000000000000000000000000600052604160045260246000fd5b61085b82610633565b810181811067ffffffffffffffff8211171561087a57610879610823565b5b80604052505050565b600061088d6107d9565b90506108998282610852565b919050565b600067ffffffffffffffff8211156108b9576108b8610823565b5b6108c282610633565b9050602081019050919050565b82818337600083830152505050565b60006108f16108ec8461089e565b610883565b90508281526020810184848401111561090d5761090c61081e565b5b6109188482856108cf565b509392505050565b600082601f83011261093557610934610819565b5b81356109458482602086016108de565b91505092915050565b6109578161069d565b811461096257600080fd5b50565b6000813590506109748161094e565b92915050565b60008060008060808587031215610994576109936107e3565b5b60006109a287828801610804565b945050602085013567ffffffffffffffff8111156109c3576109c26107e8565b5b6109cf87828801610920565b93505060406109e087828801610965565b92505060606109f187828801610804565b91505092959194509250565b600060208284031215610a1357610a126107e3565b5b6000610a2184828501610804565b91505092915050565b6000608083016000830151610a4260008601826105de565b5060208301518482036020860152610a5a8282610644565b9150506040830151610a6f60408601826106af565b506060830151610a8260608601826105de565b508091505092915050565b60006020820190508181036000830152610aa78184610a2a565b905092915050565b7f4e487b7100000000000000000000000000000000000000000000000000000000600052602260045260246000fd5b60006002820490506001821680610af657607f821691505b602082108103610b0957610b08610aaf565b5b50919050565b7f4e487b7100000000000000000000000000000000000000000000000000000000600052603260045260246000fd5b7f4e487b7100000000000000000000000000000000000000000000000000000000600052601160045260246000fd5b6000610b78826105d4565b91507fffffffffffffffffffffffffffffffffffffffffffffffffffffffffffffffff8203610baa57610ba9610b3e565b5b600182019050919050565b600082825260208201905092915050565b7f50726f6475637420776974682073616d6520494420616c72656164792065786960008201527f7374730000000000000000000000000000000000000000000000000000000000602082015250565b6000610c22602383610bb5565b9150610c2d82610bc6565b604082019050919050565b60006020820190508181036000830152610c5181610c15565b9050919050565b60008190508160005260206000209050919050565b60006020601f8301049050919050565b600082821b905092915050565b600060088302610cba7fffffffffffffffffffffffffffffffffffffffffffffffffffffffffffffffff82610c7d565b610cc48683610c7d565b95508019841693508086168417925050509392505050565b6000819050919050565b6000610d01610cfc610cf7846105d4565b610cdc565b6105d4565b9050919050565b6000819050919050565b610d1b83610ce6565b610d2f610d2782610d08565b848454610c8a565b825550505050565b600090565b610d44610d37565b610d4f818484610d12565b505050565b5b81811015610d7357610d68600082610d3c565b600181019050610d55565b5050565b601f821115610db857610d8981610c58565b610d9284610c6d565b81016020851015610da1578190505b610db5610dad85610c6d565b830182610d54565b50505b505050565b600082821c905092915050565b6000610ddb60001984600802610dbd565b1980831691505092915050565b6000610df48383610dca565b9150826002028217905092915050565b610e0d826105ed565b67ffffffffffffffff811115610e2657610e25610823565b5b610e308254610ade565b610e3b828285610d77565b600060209050601f831160018114610e6e5760008415610e5c578287015190505b610e668582610de8565b865550610ece565b601f198416610e7c86610c58565b60005b82811015610ea457848901518255600182019150602085019450602081019050610e7f565b86831015610ec15784890151610ebd601f891682610dca565b8355505b6001600288020188555050505b505050505050565b610edf816105d4565b82525050565b6000610ef0826105ed565b610efa8185610bb5565b9350610f0a818560208601610609565b610f1381610633565b840191505092915050565b6000606082019050610f336000830186610ed6565b8181036020830152610f458185610ee5565b9050610f546040830184610ed6565b94935050505056fea2646970667358221220ffeb81f195dceac43180859d5bcbc37dd75622678752d1e0da5a558dd96a666564736f6c63430008120033",
					"opcodes": "PUSH1 0x80 PUSH1 0x40 MSTORE CALLVALUE DUP1 ISZERO PUSH2 0x10 JUMPI PUSH1 0x0 DUP1 REVERT JUMPDEST POP PUSH2 0xF92 DUP1 PUSH2 0x20 PUSH1 0x0 CODECOPY PUSH1 0x0 RETURN INVALID PUSH1 0x80 PUSH1 0x40 MSTORE CALLVALUE DUP1 ISZERO PUSH2 0x10 JUMPI PUSH1 0x0 DUP1 REVERT JUMPDEST POP PUSH1 0x4 CALLDATASIZE LT PUSH2 0x41 JUMPI PUSH1 0x0 CALLDATALOAD PUSH1 0xE0 SHR DUP1 PUSH4 0x2EE3A52 EQ PUSH2 0x46 JUMPI DUP1 PUSH4 0x31A41444 EQ PUSH2 0x64 JUMPI DUP1 PUSH4 0x3F70C2B4 EQ PUSH2 0x80 JUMPI JUMPDEST PUSH1 0x0 DUP1 REVERT JUMPDEST PUSH2 0x4E PUSH2 0xB0 JUMP JUMPDEST PUSH1 0x40 MLOAD PUSH2 0x5B SWAP2 SWAP1 PUSH2 0x7B7 JUMP JUMPDEST PUSH1 0x40 MLOAD DUP1 SWAP2 SUB SWAP1 RETURN JUMPDEST PUSH2 0x7E PUSH1 0x4 DUP1 CALLDATASIZE SUB DUP2 ADD SWAP1 PUSH2 0x79 SWAP2 SWAP1 PUSH2 0x97A JUMP JUMPDEST PUSH2 0x26B JUMP JUMPDEST STOP JUMPDEST PUSH2 0x9A PUSH1 0x4 DUP1 CALLDATASIZE SUB DUP2 ADD SWAP1 PUSH2 0x95 SWAP2 SWAP1 PUSH2 0x9FD JUMP JUMPDEST PUSH2 0x442 JUMP JUMPDEST PUSH1 0x40 MLOAD PUSH2 0xA7 SWAP2 SWAP1 PUSH2 0xA8D JUMP JUMPDEST PUSH1 0x40 MLOAD DUP1 SWAP2 SUB SWAP1 RETURN JUMPDEST PUSH1 0x60 PUSH1 0x0 PUSH1 0x1 SLOAD PUSH8 0xFFFFFFFFFFFFFFFF DUP2 GT ISZERO PUSH2 0xD0 JUMPI PUSH2 0xCF PUSH2 0x823 JUMP JUMPDEST JUMPDEST PUSH1 0x40 MLOAD SWAP1 DUP1 DUP3 MSTORE DUP1 PUSH1 0x20 MUL PUSH1 0x20 ADD DUP3 ADD PUSH1 0x40 MSTORE DUP1 ISZERO PUSH2 0x109 JUMPI DUP2 PUSH1 0x20 ADD JUMPDEST PUSH2 0xF6 PUSH2 0x56A JUMP JUMPDEST DUP2 MSTORE PUSH1 0x20 ADD SWAP1 PUSH1 0x1 SWAP1 SUB SWAP1 DUP2 PUSH2 0xEE JUMPI SWAP1 POP JUMPDEST POP SWAP1 POP PUSH1 0x0 JUMPDEST PUSH1 0x1 SLOAD DUP2 LT ISZERO PUSH2 0x263 JUMPI PUSH1 0x0 DUP1 DUP3 DUP2 MSTORE PUSH1 0x20 ADD SWAP1 DUP2 MSTORE PUSH1 0x20 ADD PUSH1 0x0 KECCAK256 PUSH1 0x40 MLOAD DUP1 PUSH1 0x80 ADD PUSH1 0x40 MSTORE SWAP1 DUP2 PUSH1 0x0 DUP3 ADD SLOAD DUP2 MSTORE PUSH1 0x20 ADD PUSH1 0x1 DUP3 ADD DUP1 SLOAD PUSH2 0x150 SWAP1 PUSH2 0xADE JUMP JUMPDEST DUP1 PUSH1 0x1F ADD PUSH1 0x20 DUP1 SWAP2 DIV MUL PUSH1 0x20 ADD PUSH1 0x40 MLOAD SWAP1 DUP2 ADD PUSH1 0x40 MSTORE DUP1 SWAP3 SWAP2 SWAP1 DUP2 DUP2 MSTORE PUSH1 0x20 ADD DUP3 DUP1 SLOAD PUSH2 0x17C SWAP1 PUSH2 0xADE JUMP JUMPDEST DUP1 ISZERO PUSH2 0x1C9 JUMPI DUP1 PUSH1 0x1F LT PUSH2 0x19E JUMPI PUSH2 0x100 DUP1 DUP4 SLOAD DIV MUL DUP4 MSTORE SWAP2 PUSH1 0x20 ADD SWAP2 PUSH2 0x1C9 JUMP JUMPDEST DUP3 ADD SWAP2 SWAP1 PUSH1 0x0 MSTORE PUSH1 0x20 PUSH1 0x0 KECCAK256 SWAP1 JUMPDEST DUP2 SLOAD DUP2 MSTORE SWAP1 PUSH1 0x1 ADD SWAP1 PUSH1 0x20 ADD DUP1 DUP4 GT PUSH2 0x1AC JUMPI DUP3 SWAP1 SUB PUSH1 0x1F AND DUP3 ADD SWAP2 JUMPDEST POP POP POP POP POP DUP2 MSTORE PUSH1 0x20 ADD PUSH1 0x2 DUP3 ADD PUSH1 0x0 SWAP1 SLOAD SWAP1 PUSH2 0x100 EXP SWAP1 DIV PUSH20 0xFFFFFFFFFFFFFFFFFFFFFFFFFFFFFFFFFFFFFFFF AND PUSH20 0xFFFFFFFFFFFFFFFFFFFFFFFFFFFFFFFFFFFFFFFF AND PUSH20 0xFFFFFFFFFFFFFFFFFFFFFFFFFFFFFFFFFFFFFFFF AND DUP2 MSTORE PUSH1 0x20 ADD PUSH1 0x3 DUP3 ADD SLOAD DUP2 MSTORE POP POP DUP3 DUP3 DUP2 MLOAD DUP2 LT PUSH2 0x245 JUMPI PUSH2 0x244 PUSH2 0xB0F JUMP JUMPDEST JUMPDEST PUSH1 0x20 MUL PUSH1 0x20 ADD ADD DUP2 SWAP1 MSTORE POP DUP1 DUP1 PUSH2 0x25B SWAP1 PUSH2 0xB6D JUMP JUMPDEST SWAP2 POP POP PUSH2 0x10F JUMP JUMPDEST POP DUP1 SWAP2 POP POP SWAP1 JUMP JUMPDEST PUSH1 0x0 PUSH20 0xFFFFFFFFFFFFFFFFFFFFFFFFFFFFFFFFFFFFFFFF AND PUSH1 0x0 DUP1 DUP7 DUP2 MSTORE PUSH1 0x20 ADD SWAP1 DUP2 MSTORE PUSH1 0x20 ADD PUSH1 0x0 KECCAK256 PUSH1 0x2 ADD PUSH1 0x0 SWAP1 SLOAD SWAP1 PUSH2 0x100 EXP SWAP1 DIV PUSH20 0xFFFFFFFFFFFFFFFFFFFFFFFFFFFFFFFFFFFFFFFF AND PUSH20 0xFFFFFFFFFFFFFFFFFFFFFFFFFFFFFFFFFFFFFFFF AND EQ PUSH2 0x30F JUMPI PUSH1 0x40 MLOAD PUSH32 0x8C379A000000000000000000000000000000000000000000000000000000000 DUP2 MSTORE PUSH1 0x4 ADD PUSH2 0x306 SWAP1 PUSH2 0xC38 JUMP JUMPDEST PUSH1 0x40 MLOAD DUP1 SWAP2 SUB SWAP1 REVERT JUMPDEST PUSH1 0x0 PUSH1 0x40 MLOAD DUP1 PUSH1 0x80 ADD PUSH1 0x40 MSTORE DUP1 DUP7 DUP2 MSTORE PUSH1 0x20 ADD DUP6 DUP2 MSTORE PUSH1 0x20 ADD DUP5 PUSH20 0xFFFFFFFFFFFFFFFFFFFFFFFFFFFFFFFFFFFFFFFF AND DUP2 MSTORE PUSH1 0x20 ADD DUP4 DUP2 MSTORE POP SWAP1 POP DUP1 PUSH1 0x0 DUP1 DUP8 DUP2 MSTORE PUSH1 0x20 ADD SWAP1 DUP2 MSTORE PUSH1 0x20 ADD PUSH1 0x0 KECCAK256 PUSH1 0x0 DUP3 ADD MLOAD DUP2 PUSH1 0x0 ADD SSTORE PUSH1 0x20 DUP3 ADD MLOAD DUP2 PUSH1 0x1 ADD SWAP1 DUP2 PUSH2 0x37C SWAP2 SWAP1 PUSH2 0xE04 JUMP JUMPDEST POP PUSH1 0x40 DUP3 ADD MLOAD DUP2 PUSH1 0x2 ADD PUSH1 0x0 PUSH2 0x100 EXP DUP2 SLOAD DUP2 PUSH20 0xFFFFFFFFFFFFFFFFFFFFFFFFFFFFFFFFFFFFFFFF MUL NOT AND SWAP1 DUP4 PUSH20 0xFFFFFFFFFFFFFFFFFFFFFFFFFFFFFFFFFFFFFFFF AND MUL OR SWAP1 SSTORE POP PUSH1 0x60 DUP3 ADD MLOAD DUP2 PUSH1 0x3 ADD SSTORE SWAP1 POP POP PUSH1 0x1 PUSH1 0x0 DUP2 SLOAD DUP1 SWAP3 SWAP2 SWAP1 PUSH2 0x3E4 SWAP1 PUSH2 0xB6D JUMP JUMPDEST SWAP2 SWAP1 POP SSTORE POP DUP3 PUSH20 0xFFFFFFFFFFFFFFFFFFFFFFFFFFFFFFFFFFFFFFFF AND PUSH32 0x27053D27A5EB2A68EC20C3E8B30CBFBBE7BB019458AAAC90BA4606956F97C8D6 DUP7 DUP7 DUP6 PUSH1 0x40 MLOAD PUSH2 0x433 SWAP4 SWAP3 SWAP2 SWAP1 PUSH2 0xF1E JUMP JUMPDEST PUSH1 0x40 MLOAD DUP1 SWAP2 SUB SWAP1 LOG2 POP POP POP POP POP JUMP JUMPDEST PUSH2 0x44A PUSH2 0x56A JUMP JUMPDEST PUSH1 0x0 DUP1 DUP4 DUP2 MSTORE PUSH1 0x20 ADD SWAP1 DUP2 MSTORE PUSH1 0x20 ADD PUSH1 0x0 KECCAK256 PUSH1 0x40 MLOAD DUP1 PUSH1 0x80 ADD PUSH1 0x40 MSTORE SWAP1 DUP2 PUSH1 0x0 DUP3 ADD SLOAD DUP2 MSTORE PUSH1 0x20 ADD PUSH1 0x1 DUP3 ADD DUP1 SLOAD PUSH2 0x481 SWAP1 PUSH2 0xADE JUMP JUMPDEST DUP1 PUSH1 0x1F ADD PUSH1 0x20 DUP1 SWAP2 DIV MUL PUSH1 0x20 ADD PUSH1 0x40 MLOAD SWAP1 DUP2 ADD PUSH1 0x40 MSTORE DUP1 SWAP3 SWAP2 SWAP1 DUP2 DUP2 MSTORE PUSH1 0x20 ADD DUP3 DUP1 SLOAD PUSH2 0x4AD SWAP1 PUSH2 0xADE JUMP JUMPDEST DUP1 ISZERO PUSH2 0x4FA JUMPI DUP1 PUSH1 0x1F LT PUSH2 0x4CF JUMPI PUSH2 0x100 DUP1 DUP4 SLOAD DIV MUL DUP4 MSTORE SWAP2 PUSH1 0x20 ADD SWAP2 PUSH2 0x4FA JUMP JUMPDEST DUP3 ADD SWAP2 SWAP1 PUSH1 0x0 MSTORE PUSH1 0x20 PUSH1 0x0 KECCAK256 SWAP1 JUMPDEST DUP2 SLOAD DUP2 MSTORE SWAP1 PUSH1 0x1 ADD SWAP1 PUSH1 0x20 ADD DUP1 DUP4 GT PUSH2 0x4DD JUMPI DUP3 SWAP1 SUB PUSH1 0x1F AND DUP3 ADD SWAP2 JUMPDEST POP POP POP POP POP DUP2 MSTORE PUSH1 0x20 ADD PUSH1 0x2 DUP3 ADD PUSH1 0x0 SWAP1 SLOAD SWAP1 PUSH2 0x100 EXP SWAP1 DIV PUSH20 0xFFFFFFFFFFFFFFFFFFFFFFFFFFFFFFFFFFFFFFFF AND PUSH20 0xFFFFFFFFFFFFFFFFFFFFFFFFFFFFFFFFFFFFFFFF AND PUSH20 0xFFFFFFFFFFFFFFFFFFFFFFFFFFFFFFFFFFFFFFFF AND DUP2 MSTORE PUSH1 0x20 ADD PUSH1 0x3 DUP3 ADD SLOAD DUP2 MSTORE POP POP SWAP1 POP SWAP2 SWAP1 POP JUMP JUMPDEST PUSH1 0x40 MLOAD DUP1 PUSH1 0x80 ADD PUSH1 0x40 MSTORE DUP1 PUSH1 0x0 DUP2 MSTORE PUSH1 0x20 ADD PUSH1 0x60 DUP2 MSTORE PUSH1 0x20 ADD PUSH1 0x0 PUSH20 0xFFFFFFFFFFFFFFFFFFFFFFFFFFFFFFFFFFFFFFFF AND DUP2 MSTORE PUSH1 0x20 ADD PUSH1 0x0 DUP2 MSTORE POP SWAP1 JUMP JUMPDEST PUSH1 0x0 DUP2 MLOAD SWAP1 POP SWAP2 SWAP1 POP JUMP JUMPDEST PUSH1 0x0 DUP3 DUP3 MSTORE PUSH1 0x20 DUP3 ADD SWAP1 POP SWAP3 SWAP2 POP POP JUMP JUMPDEST PUSH1 0x0 DUP2 SWAP1 POP PUSH1 0x20 DUP3 ADD SWAP1 POP SWAP2 SWAP1 POP JUMP JUMPDEST PUSH1 0x0 DUP2 SWAP1 POP SWAP2 SWAP1 POP JUMP JUMPDEST PUSH2 0x5E7 DUP2 PUSH2 0x5D4 JUMP JUMPDEST DUP3 MSTORE POP POP JUMP JUMPDEST PUSH1 0x0 DUP2 MLOAD SWAP1 POP SWAP2 SWAP1 POP JUMP JUMPDEST PUSH1 0x0 DUP3 DUP3 MSTORE PUSH1 0x20 DUP3 ADD SWAP1 POP SWAP3 SWAP2 POP POP JUMP JUMPDEST PUSH1 0x0 JUMPDEST DUP4 DUP2 LT ISZERO PUSH2 0x627 JUMPI DUP1 DUP3 ADD MLOAD DUP2 DUP5 ADD MSTORE PUSH1 0x20 DUP2 ADD SWAP1 POP PUSH2 0x60C JUMP JUMPDEST PUSH1 0x0 DUP5 DUP5 ADD MSTORE POP POP POP POP JUMP JUMPDEST PUSH1 0x0 PUSH1 0x1F NOT PUSH1 0x1F DUP4 ADD AND SWAP1 POP SWAP2 SWAP1 POP JUMP JUMPDEST PUSH1 0x0 PUSH2 0x64F DUP3 PUSH2 0x5ED JUMP JUMPDEST PUSH2 0x659 DUP2 DUP6 PUSH2 0x5F8 JUMP JUMPDEST SWAP4 POP PUSH2 0x669 DUP2 DUP6 PUSH1 0x20 DUP7 ADD PUSH2 0x609 JUMP JUMPDEST PUSH2 0x672 DUP2 PUSH2 0x633 JUMP JUMPDEST DUP5 ADD SWAP2 POP POP SWAP3 SWAP2 POP POP JUMP JUMPDEST PUSH1 0x0 PUSH20 0xFFFFFFFFFFFFFFFFFFFFFFFFFFFFFFFFFFFFFFFF DUP3 AND SWAP1 POP SWAP2 SWAP1 POP JUMP JUMPDEST PUSH1 0x0 PUSH2 0x6A8 DUP3 PUSH2 0x67D JUMP JUMPDEST SWAP1 POP SWAP2 SWAP1 POP JUMP JUMPDEST PUSH2 0x6B8 DUP2 PUSH2 0x69D JUMP JUMPDEST DUP3 MSTORE POP POP JUMP JUMPDEST PUSH1 0x0 PUSH1 0x80 DUP4 ADD PUSH1 0x0 DUP4 ADD MLOAD PUSH2 0x6D6 PUSH1 0x0 DUP7 ADD DUP3 PUSH2 0x5DE JUMP JUMPDEST POP PUSH1 0x20 DUP4 ADD MLOAD DUP5 DUP3 SUB PUSH1 0x20 DUP7 ADD MSTORE PUSH2 0x6EE DUP3 DUP3 PUSH2 0x644 JUMP JUMPDEST SWAP2 POP POP PUSH1 0x40 DUP4 ADD MLOAD PUSH2 0x703 PUSH1 0x40 DUP7 ADD DUP3 PUSH2 0x6AF JUMP JUMPDEST POP PUSH1 0x60 DUP4 ADD MLOAD PUSH2 0x716 PUSH1 0x60 DUP7 ADD DUP3 PUSH2 0x5DE JUMP JUMPDEST POP DUP1 SWAP2 POP POP SWAP3 SWAP2 POP POP JUMP JUMPDEST PUSH1 0x0 PUSH2 0x72D DUP4 DUP4 PUSH2 0x6BE JUMP JUMPDEST SWAP1 POP SWAP3 SWAP2 POP POP JUMP JUMPDEST PUSH1 0x0 PUSH1 0x20 DUP3 ADD SWAP1 POP SWAP2 SWAP1 POP JUMP JUMPDEST PUSH1 0x0 PUSH2 0x74D DUP3 PUSH2 0x5A8 JUMP JUMPDEST PUSH2 0x757 DUP2 DUP6 PUSH2 0x5B3 JUMP JUMPDEST SWAP4 POP DUP4 PUSH1 0x20 DUP3 MUL DUP6 ADD PUSH2 0x769 DUP6 PUSH2 0x5C4 JUMP JUMPDEST DUP1 PUSH1 0x0 JUMPDEST DUP6 DUP2 LT ISZERO PUSH2 0x7A5 JUMPI DUP5 DUP5 SUB DUP10 MSTORE DUP2 MLOAD PUSH2 0x786 DUP6 DUP3 PUSH2 0x721 JUMP JUMPDEST SWAP5 POP PUSH2 0x791 DUP4 PUSH2 0x735 JUMP JUMPDEST SWAP3 POP PUSH1 0x20 DUP11 ADD SWAP10 POP POP PUSH1 0x1 DUP2 ADD SWAP1 POP PUSH2 0x76D JUMP JUMPDEST POP DUP3 SWAP8 POP DUP8 SWAP6 POP POP POP POP POP POP SWAP3 SWAP2 POP POP JUMP JUMPDEST PUSH1 0x0 PUSH1 0x20 DUP3 ADD SWAP1 POP DUP2 DUP2 SUB PUSH1 0x0 DUP4 ADD MSTORE PUSH2 0x7D1 DUP2 DUP5 PUSH2 0x742 JUMP JUMPDEST SWAP1 POP SWAP3 SWAP2 POP POP JUMP JUMPDEST PUSH1 0x0 PUSH1 0x40 MLOAD SWAP1 POP SWAP1 JUMP JUMPDEST PUSH1 0x0 DUP1 REVERT JUMPDEST PUSH1 0x0 DUP1 REVERT JUMPDEST PUSH2 0x7F6 DUP2 PUSH2 0x5D4 JUMP JUMPDEST DUP2 EQ PUSH2 0x801 JUMPI PUSH1 0x0 DUP1 REVERT JUMPDEST POP JUMP JUMPDEST PUSH1 0x0 DUP2 CALLDATALOAD SWAP1 POP PUSH2 0x813 DUP2 PUSH2 0x7ED JUMP JUMPDEST SWAP3 SWAP2 POP POP JUMP JUMPDEST PUSH1 0x0 DUP1 REVERT JUMPDEST PUSH1 0x0 DUP1 REVERT JUMPDEST PUSH32 0x4E487B7100000000000000000000000000000000000000000000000000000000 PUSH1 0x0 MSTORE PUSH1 0x41 PUSH1 0x4 MSTORE PUSH1 0x24 PUSH1 0x0 REVERT JUMPDEST PUSH2 0x85B DUP3 PUSH2 0x633 JUMP JUMPDEST DUP2 ADD DUP2 DUP2 LT PUSH8 0xFFFFFFFFFFFFFFFF DUP3 GT OR ISZERO PUSH2 0x87A JUMPI PUSH2 0x879 PUSH2 0x823 JUMP JUMPDEST JUMPDEST DUP1 PUSH1 0x40 MSTORE POP POP POP JUMP JUMPDEST PUSH1 0x0 PUSH2 0x88D PUSH2 0x7D9 JUMP JUMPDEST SWAP1 POP PUSH2 0x899 DUP3 DUP3 PUSH2 0x852 JUMP JUMPDEST SWAP2 SWAP1 POP JUMP JUMPDEST PUSH1 0x0 PUSH8 0xFFFFFFFFFFFFFFFF DUP3 GT ISZERO PUSH2 0x8B9 JUMPI PUSH2 0x8B8 PUSH2 0x823 JUMP JUMPDEST JUMPDEST PUSH2 0x8C2 DUP3 PUSH2 0x633 JUMP JUMPDEST SWAP1 POP PUSH1 0x20 DUP2 ADD SWAP1 POP SWAP2 SWAP1 POP JUMP JUMPDEST DUP3 DUP2 DUP4 CALLDATACOPY PUSH1 0x0 DUP4 DUP4 ADD MSTORE POP POP POP JUMP JUMPDEST PUSH1 0x0 PUSH2 0x8F1 PUSH2 0x8EC DUP5 PUSH2 0x89E JUMP JUMPDEST PUSH2 0x883 JUMP JUMPDEST SWAP1 POP DUP3 DUP2 MSTORE PUSH1 0x20 DUP2 ADD DUP5 DUP5 DUP5 ADD GT ISZERO PUSH2 0x90D JUMPI PUSH2 0x90C PUSH2 0x81E JUMP JUMPDEST JUMPDEST PUSH2 0x918 DUP5 DUP3 DUP6 PUSH2 0x8CF JUMP JUMPDEST POP SWAP4 SWAP3 POP POP POP JUMP JUMPDEST PUSH1 0x0 DUP3 PUSH1 0x1F DUP4 ADD SLT PUSH2 0x935 JUMPI PUSH2 0x934 PUSH2 0x819 JUMP JUMPDEST JUMPDEST DUP2 CALLDATALOAD PUSH2 0x945 DUP5 DUP3 PUSH1 0x20 DUP7 ADD PUSH2 0x8DE JUMP JUMPDEST SWAP2 POP POP SWAP3 SWAP2 POP POP JUMP JUMPDEST PUSH2 0x957 DUP2 PUSH2 0x69D JUMP JUMPDEST DUP2 EQ PUSH2 0x962 JUMPI PUSH1 0x0 DUP1 REVERT JUMPDEST POP JUMP JUMPDEST PUSH1 0x0 DUP2 CALLDATALOAD SWAP1 POP PUSH2 0x974 DUP2 PUSH2 0x94E JUMP JUMPDEST SWAP3 SWAP2 POP POP JUMP JUMPDEST PUSH1 0x0 DUP1 PUSH1 0x0 DUP1 PUSH1 0x80 DUP6 DUP8 SUB SLT ISZERO PUSH2 0x994 JUMPI PUSH2 0x993 PUSH2 0x7E3 JUMP JUMPDEST JUMPDEST PUSH1 0x0 PUSH2 0x9A2 DUP8 DUP3 DUP9 ADD PUSH2 0x804 JUMP JUMPDEST SWAP5 POP POP PUSH1 0x20 DUP6 ADD CALLDATALOAD PUSH8 0xFFFFFFFFFFFFFFFF DUP2 GT ISZERO PUSH2 0x9C3 JUMPI PUSH2 0x9C2 PUSH2 0x7E8 JUMP JUMPDEST JUMPDEST PUSH2 0x9CF DUP8 DUP3 DUP9 ADD PUSH2 0x920 JUMP JUMPDEST SWAP4 POP POP PUSH1 0x40 PUSH2 0x9E0 DUP8 DUP3 DUP9 ADD PUSH2 0x965 JUMP JUMPDEST SWAP3 POP POP PUSH1 0x60 PUSH2 0x9F1 DUP8 DUP3 DUP9 ADD PUSH2 0x804 JUMP JUMPDEST SWAP2 POP POP SWAP3 SWAP6 SWAP2 SWAP5 POP SWAP3 POP JUMP JUMPDEST PUSH1 0x0 PUSH1 0x20 DUP3 DUP5 SUB SLT ISZERO PUSH2 0xA13 JUMPI PUSH2 0xA12 PUSH2 0x7E3 JUMP JUMPDEST JUMPDEST PUSH1 0x0 PUSH2 0xA21 DUP5 DUP3 DUP6 ADD PUSH2 0x804 JUMP JUMPDEST SWAP2 POP POP SWAP3 SWAP2 POP POP JUMP JUMPDEST PUSH1 0x0 PUSH1 0x80 DUP4 ADD PUSH1 0x0 DUP4 ADD MLOAD PUSH2 0xA42 PUSH1 0x0 DUP7 ADD DUP3 PUSH2 0x5DE JUMP JUMPDEST POP PUSH1 0x20 DUP4 ADD MLOAD DUP5 DUP3 SUB PUSH1 0x20 DUP7 ADD MSTORE PUSH2 0xA5A DUP3 DUP3 PUSH2 0x644 JUMP JUMPDEST SWAP2 POP POP PUSH1 0x40 DUP4 ADD MLOAD PUSH2 0xA6F PUSH1 0x40 DUP7 ADD DUP3 PUSH2 0x6AF JUMP JUMPDEST POP PUSH1 0x60 DUP4 ADD MLOAD PUSH2 0xA82 PUSH1 0x60 DUP7 ADD DUP3 PUSH2 0x5DE JUMP JUMPDEST POP DUP1 SWAP2 POP POP SWAP3 SWAP2 POP POP JUMP JUMPDEST PUSH1 0x0 PUSH1 0x20 DUP3 ADD SWAP1 POP DUP2 DUP2 SUB PUSH1 0x0 DUP4 ADD MSTORE PUSH2 0xAA7 DUP2 DUP5 PUSH2 0xA2A JUMP JUMPDEST SWAP1 POP SWAP3 SWAP2 POP POP JUMP JUMPDEST PUSH32 0x4E487B7100000000000000000000000000000000000000000000000000000000 PUSH1 0x0 MSTORE PUSH1 0x22 PUSH1 0x4 MSTORE PUSH1 0x24 PUSH1 0x0 REVERT JUMPDEST PUSH1 0x0 PUSH1 0x2 DUP3 DIV SWAP1 POP PUSH1 0x1 DUP3 AND DUP1 PUSH2 0xAF6 JUMPI PUSH1 0x7F DUP3 AND SWAP2 POP JUMPDEST PUSH1 0x20 DUP3 LT DUP2 SUB PUSH2 0xB09 JUMPI PUSH2 0xB08 PUSH2 0xAAF JUMP JUMPDEST JUMPDEST POP SWAP2 SWAP1 POP JUMP JUMPDEST PUSH32 0x4E487B7100000000000000000000000000000000000000000000000000000000 PUSH1 0x0 MSTORE PUSH1 0x32 PUSH1 0x4 MSTORE PUSH1 0x24 PUSH1 0x0 REVERT JUMPDEST PUSH32 0x4E487B7100000000000000000000000000000000000000000000000000000000 PUSH1 0x0 MSTORE PUSH1 0x11 PUSH1 0x4 MSTORE PUSH1 0x24 PUSH1 0x0 REVERT JUMPDEST PUSH1 0x0 PUSH2 0xB78 DUP3 PUSH2 0x5D4 JUMP JUMPDEST SWAP2 POP PUSH32 0xFFFFFFFFFFFFFFFFFFFFFFFFFFFFFFFFFFFFFFFFFFFFFFFFFFFFFFFFFFFFFFFF DUP3 SUB PUSH2 0xBAA JUMPI PUSH2 0xBA9 PUSH2 0xB3E JUMP JUMPDEST JUMPDEST PUSH1 0x1 DUP3 ADD SWAP1 POP SWAP2 SWAP1 POP JUMP JUMPDEST PUSH1 0x0 DUP3 DUP3 MSTORE PUSH1 0x20 DUP3 ADD SWAP1 POP SWAP3 SWAP2 POP POP JUMP JUMPDEST PUSH32 0x50726F6475637420776974682073616D6520494420616C726561647920657869 PUSH1 0x0 DUP3 ADD MSTORE PUSH32 0x7374730000000000000000000000000000000000000000000000000000000000 PUSH1 0x20 DUP3 ADD MSTORE POP JUMP JUMPDEST PUSH1 0x0 PUSH2 0xC22 PUSH1 0x23 DUP4 PUSH2 0xBB5 JUMP JUMPDEST SWAP2 POP PUSH2 0xC2D DUP3 PUSH2 0xBC6 JUMP JUMPDEST PUSH1 0x40 DUP3 ADD SWAP1 POP SWAP2 SWAP1 POP JUMP JUMPDEST PUSH1 0x0 PUSH1 0x20 DUP3 ADD SWAP1 POP DUP2 DUP2 SUB PUSH1 0x0 DUP4 ADD MSTORE PUSH2 0xC51 DUP2 PUSH2 0xC15 JUMP JUMPDEST SWAP1 POP SWAP2 SWAP1 POP JUMP JUMPDEST PUSH1 0x0 DUP2 SWAP1 POP DUP2 PUSH1 0x0 MSTORE PUSH1 0x20 PUSH1 0x0 KECCAK256 SWAP1 POP SWAP2 SWAP1 POP JUMP JUMPDEST PUSH1 0x0 PUSH1 0x20 PUSH1 0x1F DUP4 ADD DIV SWAP1 POP SWAP2 SWAP1 POP JUMP JUMPDEST PUSH1 0x0 DUP3 DUP3 SHL SWAP1 POP SWAP3 SWAP2 POP POP JUMP JUMPDEST PUSH1 0x0 PUSH1 0x8 DUP4 MUL PUSH2 0xCBA PUSH32 0xFFFFFFFFFFFFFFFFFFFFFFFFFFFFFFFFFFFFFFFFFFFFFFFFFFFFFFFFFFFFFFFF DUP3 PUSH2 0xC7D JUMP JUMPDEST PUSH2 0xCC4 DUP7 DUP4 PUSH2 0xC7D JUMP JUMPDEST SWAP6 POP DUP1 NOT DUP5 AND SWAP4 POP DUP1 DUP7 AND DUP5 OR SWAP3 POP POP POP SWAP4 SWAP3 POP POP POP JUMP JUMPDEST PUSH1 0x0 DUP2 SWAP1 POP SWAP2 SWAP1 POP JUMP JUMPDEST PUSH1 0x0 PUSH2 0xD01 PUSH2 0xCFC PUSH2 0xCF7 DUP5 PUSH2 0x5D4 JUMP JUMPDEST PUSH2 0xCDC JUMP JUMPDEST PUSH2 0x5D4 JUMP JUMPDEST SWAP1 POP SWAP2 SWAP1 POP JUMP JUMPDEST PUSH1 0x0 DUP2 SWAP1 POP SWAP2 SWAP1 POP JUMP JUMPDEST PUSH2 0xD1B DUP4 PUSH2 0xCE6 JUMP JUMPDEST PUSH2 0xD2F PUSH2 0xD27 DUP3 PUSH2 0xD08 JUMP JUMPDEST DUP5 DUP5 SLOAD PUSH2 0xC8A JUMP JUMPDEST DUP3 SSTORE POP POP POP POP JUMP JUMPDEST PUSH1 0x0 SWAP1 JUMP JUMPDEST PUSH2 0xD44 PUSH2 0xD37 JUMP JUMPDEST PUSH2 0xD4F DUP2 DUP5 DUP5 PUSH2 0xD12 JUMP JUMPDEST POP POP POP JUMP JUMPDEST JUMPDEST DUP2 DUP2 LT ISZERO PUSH2 0xD73 JUMPI PUSH2 0xD68 PUSH1 0x0 DUP3 PUSH2 0xD3C JUMP JUMPDEST PUSH1 0x1 DUP2 ADD SWAP1 POP PUSH2 0xD55 JUMP JUMPDEST POP POP JUMP JUMPDEST PUSH1 0x1F DUP3 GT ISZERO PUSH2 0xDB8 JUMPI PUSH2 0xD89 DUP2 PUSH2 0xC58 JUMP JUMPDEST PUSH2 0xD92 DUP5 PUSH2 0xC6D JUMP JUMPDEST DUP2 ADD PUSH1 0x20 DUP6 LT ISZERO PUSH2 0xDA1 JUMPI DUP2 SWAP1 POP JUMPDEST PUSH2 0xDB5 PUSH2 0xDAD DUP6 PUSH2 0xC6D JUMP JUMPDEST DUP4 ADD DUP3 PUSH2 0xD54 JUMP JUMPDEST POP POP JUMPDEST POP POP POP JUMP JUMPDEST PUSH1 0x0 DUP3 DUP3 SHR SWAP1 POP SWAP3 SWAP2 POP POP JUMP JUMPDEST PUSH1 0x0 PUSH2 0xDDB PUSH1 0x0 NOT DUP5 PUSH1 0x8 MUL PUSH2 0xDBD JUMP JUMPDEST NOT DUP1 DUP4 AND SWAP2 POP POP SWAP3 SWAP2 POP POP JUMP JUMPDEST PUSH1 0x0 PUSH2 0xDF4 DUP4 DUP4 PUSH2 0xDCA JUMP JUMPDEST SWAP2 POP DUP3 PUSH1 0x2 MUL DUP3 OR SWAP1 POP SWAP3 SWAP2 POP POP JUMP JUMPDEST PUSH2 0xE0D DUP3 PUSH2 0x5ED JUMP JUMPDEST PUSH8 0xFFFFFFFFFFFFFFFF DUP2 GT ISZERO PUSH2 0xE26 JUMPI PUSH2 0xE25 PUSH2 0x823 JUMP JUMPDEST JUMPDEST PUSH2 0xE30 DUP3 SLOAD PUSH2 0xADE JUMP JUMPDEST PUSH2 0xE3B DUP3 DUP3 DUP6 PUSH2 0xD77 JUMP JUMPDEST PUSH1 0x0 PUSH1 0x20 SWAP1 POP PUSH1 0x1F DUP4 GT PUSH1 0x1 DUP2 EQ PUSH2 0xE6E JUMPI PUSH1 0x0 DUP5 ISZERO PUSH2 0xE5C JUMPI DUP3 DUP8 ADD MLOAD SWAP1 POP JUMPDEST PUSH2 0xE66 DUP6 DUP3 PUSH2 0xDE8 JUMP JUMPDEST DUP7 SSTORE POP PUSH2 0xECE JUMP JUMPDEST PUSH1 0x1F NOT DUP5 AND PUSH2 0xE7C DUP7 PUSH2 0xC58 JUMP JUMPDEST PUSH1 0x0 JUMPDEST DUP3 DUP2 LT ISZERO PUSH2 0xEA4 JUMPI DUP5 DUP10 ADD MLOAD DUP3 SSTORE PUSH1 0x1 DUP3 ADD SWAP2 POP PUSH1 0x20 DUP6 ADD SWAP5 POP PUSH1 0x20 DUP2 ADD SWAP1 POP PUSH2 0xE7F JUMP JUMPDEST DUP7 DUP4 LT ISZERO PUSH2 0xEC1 JUMPI DUP5 DUP10 ADD MLOAD PUSH2 0xEBD PUSH1 0x1F DUP10 AND DUP3 PUSH2 0xDCA JUMP JUMPDEST DUP4 SSTORE POP JUMPDEST PUSH1 0x1 PUSH1 0x2 DUP9 MUL ADD DUP9 SSTORE POP POP POP JUMPDEST POP POP POP POP POP POP JUMP JUMPDEST PUSH2 0xEDF DUP2 PUSH2 0x5D4 JUMP JUMPDEST DUP3 MSTORE POP POP JUMP JUMPDEST PUSH1 0x0 PUSH2 0xEF0 DUP3 PUSH2 0x5ED JUMP JUMPDEST PUSH2 0xEFA DUP2 DUP6 PUSH2 0xBB5 JUMP JUMPDEST SWAP4 POP PUSH2 0xF0A DUP2 DUP6 PUSH1 0x20 DUP7 ADD PUSH2 0x609 JUMP JUMPDEST PUSH2 0xF13 DUP2 PUSH2 0x633 JUMP JUMPDEST DUP5 ADD SWAP2 POP POP SWAP3 SWAP2 POP POP JUMP JUMPDEST PUSH1 0x0 PUSH1 0x60 DUP3 ADD SWAP1 POP PUSH2 0xF33 PUSH1 0x0 DUP4 ADD DUP7 PUSH2 0xED6 JUMP JUMPDEST DUP2 DUP2 SUB PUSH1 0x20 DUP4 ADD MSTORE PUSH2 0xF45 DUP2 DUP6 PUSH2 0xEE5 JUMP JUMPDEST SWAP1 POP PUSH2 0xF54 PUSH1 0x40 DUP4 ADD DUP5 PUSH2 0xED6 JUMP JUMPDEST SWAP5 SWAP4 POP POP POP POP JUMP INVALID LOG2 PUSH5 0x6970667358 0x22 SLT KECCAK256 SELFDESTRUCT 0xEB DUP2 CALL SWAP6 0xDC 0xEA 0xC4 BALANCE DUP1 DUP6 SWAP14 JUMPDEST 0xCB 0xC3 PUSH30 0xD75622678752D1E0DA5A558DD96A666564736F6C63430008120033000000 "
				},
				"gasEstimates": {
					"creation": {
						"codeDepositCost": "797200",
						"executionCost": "831",
						"totalCost": "798031"
					},
					"external": {
						"addProduct(uint256,string,address,uint256)": "infinite",
						"getAllProducts()": "infinite",
						"getProductById(uint256)": "infinite"
					}
				},
				"methodIdentifiers": {
					"addProduct(uint256,string,address,uint256)": "31a41444",
					"getAllProducts()": "02ee3a52",
					"getProductById(uint256)": "3f70c2b4"
				}
			},
			"storageLayout": {
				"storage": [
					{
						"astId": 15,
						"contract": "AddProduct.sol:AddProduct",
						"label": "products",
						"offset": 0,
						"slot": "0",
						"type": "t_mapping(t_uint256,t_struct(Product)10_storage)"
					},
					{
						"astId": 17,
						"contract": "AddProduct.sol:AddProduct",
						"label": "productCount",
						"offset": 0,
						"slot": "1",
						"type": "t_uint256"
					}
				],
				"types": {
					"t_address": {
						"encoding": "inplace",
						"label": "address",
						"numberOfBytes": "20"
					},
					"t_mapping(t_uint256,t_struct(Product)10_storage)": {
						"encoding": "mapping",
						"key": "t_uint256",
						"label": "mapping(uint256 => struct AddProduct.Product)",
						"numberOfBytes": "32",
						"value": "t_struct(Product)10_storage"
					},
					"t_string_storage": {
						"encoding": "bytes",
						"label": "string",
						"numberOfBytes": "32"
					},
					"t_struct(Product)10_storage": {
						"encoding": "inplace",
						"label": "struct AddProduct.Product",
						"members": [
							{
								"astId": 3,
								"contract": "AddProduct.sol:AddProduct",
								"label": "productId",
								"offset": 0,
								"slot": "0",
								"type": "t_uint256"
							},
							{
								"astId": 5,
								"contract": "AddProduct.sol:AddProduct",
								"label": "name",
								"offset": 0,
								"slot": "1",
								"type": "t_string_storage"
							},
							{
								"astId": 7,
								"contract": "AddProduct.sol:AddProduct",
								"label": "seller",
								"offset": 0,
								"slot": "2",
								"type": "t_address"
							},
							{
								"astId": 9,
								"contract": "AddProduct.sol:AddProduct",
								"label": "price",
								"offset": 0,
								"slot": "3",
								"type": "t_uint256"
							}
						],
						"numberOfBytes": "128"
					},
					"t_uint256": {
						"encoding": "inplace",
						"label": "uint256",
						"numberOfBytes": "32"
					}
				}
			},
			"userdoc": {
				"kind": "user",
				"methods": {},
				"version": 1
			}
		}
	}
}